{
  "_format": "hh-sol-artifact-1",
  "contractName": "ChronoPoolService",
  "sourceName": "contracts/ChronoPoolService.sol",
  "abi": [
    {
      "inputs": [
        {
          "internalType": "contract CZFarm",
          "name": "_czf",
          "type": "address"
        },
        {
          "internalType": "uint112",
          "name": "_baseEmissionRate",
          "type": "uint112"
        }
      ],
      "stateMutability": "nonpayable",
      "type": "constructor"
    },
    {
      "anonymous": false,
      "inputs": [
        {
          "indexed": true,
          "internalType": "bytes32",
          "name": "role",
          "type": "bytes32"
        },
        {
          "indexed": true,
          "internalType": "bytes32",
          "name": "previousAdminRole",
          "type": "bytes32"
        },
        {
          "indexed": true,
          "internalType": "bytes32",
          "name": "newAdminRole",
          "type": "bytes32"
        }
      ],
      "name": "RoleAdminChanged",
      "type": "event"
    },
    {
      "anonymous": false,
      "inputs": [
        {
          "indexed": true,
          "internalType": "bytes32",
          "name": "role",
          "type": "bytes32"
        },
        {
          "indexed": true,
          "internalType": "address",
          "name": "account",
          "type": "address"
        },
        {
          "indexed": true,
          "internalType": "address",
          "name": "sender",
          "type": "address"
        }
      ],
      "name": "RoleGranted",
      "type": "event"
    },
    {
      "anonymous": false,
      "inputs": [
        {
          "indexed": true,
          "internalType": "bytes32",
          "name": "role",
          "type": "bytes32"
        },
        {
          "indexed": true,
          "internalType": "address",
          "name": "account",
          "type": "address"
        },
        {
          "indexed": true,
          "internalType": "address",
          "name": "sender",
          "type": "address"
        }
      ],
      "name": "RoleRevoked",
      "type": "event"
    },
    {
      "inputs": [],
      "name": "DEFAULT_ADMIN_ROLE",
      "outputs": [
        {
          "internalType": "bytes32",
          "name": "",
          "type": "bytes32"
        }
      ],
      "stateMutability": "view",
      "type": "function"
    },
    {
      "inputs": [],
      "name": "POOL_LORD",
      "outputs": [
        {
          "internalType": "bytes32",
          "name": "",
          "type": "bytes32"
        }
      ],
      "stateMutability": "view",
      "type": "function"
    },
    {
      "inputs": [
        {
          "internalType": "uint32",
          "name": "_ffBasis",
          "type": "uint32"
        },
        {
          "internalType": "uint32",
          "name": "_vestPeriod",
          "type": "uint32"
        },
        {
          "internalType": "uint32",
          "name": "_apr",
          "type": "uint32"
        }
      ],
      "name": "addChronoPool",
      "outputs": [
        {
          "internalType": "uint256",
          "name": "pid_",
          "type": "uint256"
        }
      ],
      "stateMutability": "nonpayable",
      "type": "function"
    },
    {
      "inputs": [
        {
          "internalType": "uint256",
          "name": "",
          "type": "uint256"
        }
      ],
      "name": "chronoPools",
      "outputs": [
        {
          "internalType": "uint32",
          "name": "rateBasis",
          "type": "uint32"
        },
        {
          "internalType": "contract ChronoVesting",
          "name": "chronoVesting",
          "type": "address"
        }
      ],
      "stateMutability": "view",
      "type": "function"
    },
    {
      "inputs": [],
      "name": "claimAll",
      "outputs": [],
      "stateMutability": "nonpayable",
      "type": "function"
    },
    {
      "inputs": [
        {
          "internalType": "uint256",
          "name": "_pid",
          "type": "uint256"
        }
      ],
      "name": "claimAndFastForward",
      "outputs": [],
      "stateMutability": "nonpayable",
      "type": "function"
    },
    {
      "inputs": [],
      "name": "claimAndFastForwardAll",
      "outputs": [],
      "stateMutability": "nonpayable",
      "type": "function"
    },
    {
      "inputs": [
        {
          "internalType": "uint256",
          "name": "_pid",
          "type": "uint256"
        }
      ],
      "name": "claimPool",
      "outputs": [],
      "stateMutability": "nonpayable",
      "type": "function"
    },
    {
      "inputs": [
        {
          "internalType": "address",
          "name": "_for",
          "type": "address"
        },
        {
          "internalType": "uint256",
          "name": "_pid",
          "type": "uint256"
        },
        {
          "internalType": "uint32",
          "name": "_epoch",
          "type": "uint32"
        }
      ],
      "name": "claimPoolForTo",
      "outputs": [],
      "stateMutability": "nonpayable",
      "type": "function"
    },
    {
      "inputs": [],
      "name": "czf",
      "outputs": [
        {
          "internalType": "contract CZFarm",
          "name": "",
          "type": "address"
        }
      ],
      "stateMutability": "view",
      "type": "function"
    },
    {
      "inputs": [
        {
          "internalType": "uint256",
          "name": "_pid",
          "type": "uint256"
        },
        {
          "internalType": "uint256",
          "name": "_wad",
          "type": "uint256"
        }
      ],
      "name": "deposit",
      "outputs": [],
      "stateMutability": "nonpayable",
      "type": "function"
    },
    {
      "inputs": [
        {
          "internalType": "uint256",
          "name": "_pid",
          "type": "uint256"
        }
      ],
      "name": "emergencyFastForward",
      "outputs": [],
      "stateMutability": "nonpayable",
      "type": "function"
    },
    {
      "inputs": [],
      "name": "emergencyFastForwardAll",
      "outputs": [],
      "stateMutability": "nonpayable",
      "type": "function"
    },
    {
      "inputs": [
        {
          "internalType": "uint32",
          "name": "_rateBasis",
          "type": "uint32"
        }
      ],
      "name": "getAdjustedRateBasis",
      "outputs": [
        {
          "internalType": "uint32",
          "name": "adjustedRateBasis_",
          "type": "uint32"
        }
      ],
      "stateMutability": "view",
      "type": "function"
    },
    {
      "inputs": [
        {
          "internalType": "address",
          "name": "_for",
          "type": "address"
        },
        {
          "internalType": "uint256",
          "name": "_pid",
          "type": "uint256"
        }
      ],
      "name": "getChronoPoolAccountInfo",
      "outputs": [
        {
          "internalType": "uint256",
          "name": "totalVesting_",
          "type": "uint256"
        },
        {
          "internalType": "uint112",
          "name": "emissionRate_",
          "type": "uint112"
        },
        {
          "internalType": "uint32",
          "name": "updateEpoch_",
          "type": "uint32"
        }
      ],
      "stateMutability": "view",
      "type": "function"
    },
    {
      "inputs": [
        {
          "internalType": "uint256",
          "name": "_pid",
          "type": "uint256"
        }
      ],
      "name": "getChronoPoolInfo",
      "outputs": [
        {
          "internalType": "uint32",
          "name": "adjustedRateBasis_",
          "type": "uint32"
        },
        {
          "internalType": "uint32",
          "name": "vestPeriod_",
          "type": "uint32"
        },
        {
          "internalType": "uint32",
          "name": "ffBasis_",
          "type": "uint32"
        },
        {
          "internalType": "uint112",
          "name": "poolEmissionRate_",
          "type": "uint112"
        }
      ],
      "stateMutability": "view",
      "type": "function"
    },
    {
      "inputs": [
        {
          "internalType": "bytes32",
          "name": "role",
          "type": "bytes32"
        }
      ],
      "name": "getRoleAdmin",
      "outputs": [
        {
          "internalType": "bytes32",
          "name": "",
          "type": "bytes32"
        }
      ],
      "stateMutability": "view",
      "type": "function"
    },
    {
      "inputs": [
        {
          "internalType": "bytes32",
          "name": "role",
          "type": "bytes32"
        },
        {
          "internalType": "uint256",
          "name": "index",
          "type": "uint256"
        }
      ],
      "name": "getRoleMember",
      "outputs": [
        {
          "internalType": "address",
          "name": "",
          "type": "address"
        }
      ],
      "stateMutability": "view",
      "type": "function"
    },
    {
      "inputs": [
        {
          "internalType": "bytes32",
          "name": "role",
          "type": "bytes32"
        }
      ],
      "name": "getRoleMemberCount",
      "outputs": [
        {
          "internalType": "uint256",
          "name": "",
          "type": "uint256"
        }
      ],
      "stateMutability": "view",
      "type": "function"
    },
    {
      "inputs": [
        {
          "internalType": "bytes32",
          "name": "role",
          "type": "bytes32"
        },
        {
          "internalType": "address",
          "name": "account",
          "type": "address"
        }
      ],
      "name": "grantRole",
      "outputs": [],
      "stateMutability": "nonpayable",
      "type": "function"
    },
    {
      "inputs": [
        {
          "internalType": "bytes32",
          "name": "role",
          "type": "bytes32"
        },
        {
          "internalType": "address",
          "name": "account",
          "type": "address"
        }
      ],
      "name": "hasRole",
      "outputs": [
        {
          "internalType": "bool",
          "name": "",
          "type": "bool"
        }
      ],
      "stateMutability": "view",
      "type": "function"
    },
    {
      "inputs": [
        {
          "internalType": "uint256",
          "name": "_pid",
          "type": "uint256"
        }
      ],
      "name": "reinvest",
      "outputs": [],
      "stateMutability": "nonpayable",
      "type": "function"
    },
    {
      "inputs": [
        {
          "internalType": "bytes32",
          "name": "role",
          "type": "bytes32"
        },
        {
          "internalType": "address",
          "name": "account",
          "type": "address"
        }
      ],
      "name": "renounceRole",
      "outputs": [],
      "stateMutability": "nonpayable",
      "type": "function"
    },
    {
      "inputs": [
        {
          "internalType": "bytes32",
          "name": "role",
          "type": "bytes32"
        },
        {
          "internalType": "address",
          "name": "account",
          "type": "address"
        }
      ],
      "name": "revokeRole",
      "outputs": [],
      "stateMutability": "nonpayable",
      "type": "function"
    },
    {
      "inputs": [
        {
          "internalType": "uint112",
          "name": "_to",
          "type": "uint112"
        }
      ],
      "name": "setBaseEmissionRate",
      "outputs": [],
      "stateMutability": "nonpayable",
      "type": "function"
    },
    {
      "inputs": [
        {
          "internalType": "uint256",
          "name": "_pid",
          "type": "uint256"
        },
        {
          "internalType": "uint32",
          "name": "_ffBasis",
          "type": "uint32"
        },
        {
          "internalType": "uint32",
          "name": "_apr",
          "type": "uint32"
        }
      ],
      "name": "setChronoPool",
      "outputs": [],
      "stateMutability": "nonpayable",
      "type": "function"
    },
    {
      "inputs": [
        {
          "internalType": "bytes4",
          "name": "interfaceId",
          "type": "bytes4"
        }
      ],
      "name": "supportsInterface",
      "outputs": [
        {
          "internalType": "bool",
          "name": "",
          "type": "bool"
        }
      ],
      "stateMutability": "view",
      "type": "function"
    }
  ],
  "bytecode": "0x60806040523480156200001157600080fd5b5060405162003fea38038062003fea83398101604081905262000034916200020b565b620000607f480cd783f889958524a857f8dbd171afd0b29bb49ea49d4873a0680c6bd91c8d33620000a6565b600380546001600160a01b0319166001600160a01b039390931692909217909155600280546001600160701b0319166001600160701b039092169190911790556200025d565b620000bd8282620000e960201b620013a11760201c565b6000828152600160209081526040909120620000e4918390620013ad620000f9821b17901c565b505050565b620000f5828262000119565b5050565b600062000110836001600160a01b038416620001b9565b90505b92915050565b6000828152602081815260408083206001600160a01b038516845290915290205460ff16620000f5576000828152602081815260408083206001600160a01b03851684529091529020805460ff19166001179055620001753390565b6001600160a01b0316816001600160a01b0316837f2f8788117e7eff1d82e926ec794901d17c78024a50270940304540a733656f0d60405160405180910390a45050565b6000818152600183016020526040812054620002025750815460018181018455600084815260208082209093018490558454848252828601909352604090209190915562000113565b50600062000113565b600080604083850312156200021e578182fd5b82516001600160a01b038116811462000235578283fd5b60208401519092506001600160701b038116811462000252578182fd5b809150509250929050565b613d7d806200026d6000396000f3fe60806040523480156200001157600080fd5b5060043610620001cc5760003560e01c806389a37575116200010d578063d1058e5911620000a3578063e584771c116200007a578063e584771c146200048b578063eb79d92c14620004b8578063f6b3c8b714620004cf578063fa6cc19914620004e657600080fd5b8063d1058e591462000453578063d547741f146200045d578063e2bbb158146200047457600080fd5b806391d1485411620000e457806391d148541462000405578063a217fddf146200041c578063ca15c8731462000425578063d0080561146200043c57600080fd5b806389a3757514620003965780639010d07c14620003ad5780639051734114620003c457600080fd5b806341b43f6711620001835780635ce34a99116200015a5780635ce34a991462000324578063727a5e631462000351578063795d121c146200036857806383b4918b146200037f57600080fd5b806341b43f6714620002a857806346a0813114620002bf5780635992d861146200030d57600080fd5b80630157d38c14620001d157806301ffc9a71462000211578063166a7bc61462000239578063248a9ca314620002455780632f2ff15d146200027a57806336568abe1462000291575b600080fd5b620001e8620001e236600462001aa4565b620004f0565b6040805163ffffffff90931683526001600160a01b039091166020830152015b60405180910390f35b620002286200022236600462001b0d565b62000529565b604051901515815260200162000208565b6200024362000557565b005b6200026b6200025636600462001aa4565b60009081526020819052604090206001015490565b60405190815260200162000208565b620002436200028b36600462001abd565b6200056d565b62000243620002a236600462001abd565b62000598565b62000243620002b936600462001b37565b620005be565b620002d6620002d036600462001aa4565b62000604565b6040805163ffffffff9586168152938516602085015291909316908201526001600160701b03909116606082015260800162000208565b6200026b60008051602062003d2883398151915281565b60035462000338906001600160a01b031681565b6040516001600160a01b03909116815260200162000208565b620002436200036236600462001b8e565b62000804565b620002436200037936600462001aa4565b62000979565b620002436200039036600462001aa4565b62000989565b62000243620003a736600462001a60565b62000aac565b62000338620003be36600462001aeb565b62000bbb565b620003db620003d536600462001a34565b62000bdc565b604080519384526001600160701b03909216602084015263ffffffff169082015260600162000208565b620002286200041636600462001abd565b62000da5565b6200026b600081565b6200026b6200043636600462001aa4565b62000dce565b620002436200044d36600462001aa4565b62000de7565b6200024362000ee4565b620002436200046e36600462001abd565b62000f12565b620002436200048536600462001aeb565b62000f1e565b620004a26200049c36600462001bc9565b620010c1565b60405163ffffffff909116815260200162000208565b62000243620004c936600462001aa4565b62001119565b6200026b620004e036600462001c07565b6200112f565b6200024362001373565b600481815481106200050157600080fd5b60009182526020909120015463ffffffff81169150600160201b90046001600160a01b031682565b60006001600160e01b03198216635a05180f60e01b14806200055157506200055182620013c4565b92915050565b6200056162000ee4565b6200056b62001373565b565b620005798282620013fb565b6000828152600160205260409020620005939082620013ad565b505050565b620005a4828262001425565b6000828152600160205260409020620005939082620014a7565b60008051602062003d28833981519152620005da8133620014be565b50600280546dffffffffffffffffffffffffffff19166001600160701b0392909216919091179055565b6000806000806000600486815481106200062e57634e487b7160e01b600052603260045260246000fd5b90600052602060002001905060008160000160049054906101000a90046001600160a01b0316905062000694600488815481106200067c57634e487b7160e01b600052603260045260246000fd5b60009182526020909120015463ffffffff16620010c1565b9550806001600160a01b031663dd3a153b6040518163ffffffff1660e01b815260040160206040518083038186803b158015620006d057600080fd5b505afa158015620006e5573d6000803e3d6000fd5b505050506040513d601f19601f820116820180604052508101906200070b919062001be8565b9450806001600160a01b031663af157a786040518163ffffffff1660e01b815260040160206040518083038186803b1580156200074757600080fd5b505afa1580156200075c573d6000803e3d6000fd5b505050506040513d601f19601f8201168201806040525081019062000782919062001be8565b9350806001600160a01b0316636bc6f0576040518163ffffffff1660e01b815260040160206040518083038186803b158015620007be57600080fd5b505afa158015620007d3573d6000803e3d6000fd5b505050506040513d601f19601f82011682018060405250810190620007f9919062001b56565b925050509193509193565b60008051602062003d28833981519152620008208133620014be565b6000600485815481106200084457634e487b7160e01b600052603260045260246000fd5b60009182526020909120018054604051639d5a239f60e01b815263ffffffff87166004820152919250600160201b90046001600160a01b0316908190639d5a239f90602401600060405180830381600087803b158015620008a457600080fd5b505af1158015620008b9573d6000803e3d6000fd5b505050506301e13380816001600160a01b031663dd3a153b6040518163ffffffff1660e01b815260040160206040518083038186803b158015620008fc57600080fd5b505afa15801562000911573d6000803e3d6000fd5b505050506040513d601f19601f8201168201806040525081019062000937919062001be8565b63ffffffff168563ffffffff1662000950919062001df0565b6200095c919062001da7565b825463ffffffff191663ffffffff91909116179091555050505050565b6200098633824262000aac565b50565b6003546040516370a0823160e01b81523360048201526000916001600160a01b0316906370a082319060240160206040518083038186803b158015620009ce57600080fd5b505afa158015620009e3573d6000803e3d6000fd5b505050506040513d601f19601f8201168201806040525081019062000a09919062001b75565b905062000a168262000979565b6003546040516370a0823160e01b815233600482015262000aa891849184916001600160a01b0316906370a082319060240160206040518083038186803b15801562000a6157600080fd5b505afa15801562000a76573d6000803e3d6000fd5b505050506040513d601f19601f8201168201806040525081019062000a9c919062001b75565b62000485919062001e3d565b5050565b6004828154811062000ace57634e487b7160e01b600052603260045260246000fd5b60009182526020909120015460405163032f2ceb60e21b81526001600160a01b03858116600483015263ffffffff84166024830152600160201b90920490911690630cbcb3ac90604401602060405180830381600087803b15801562000b3357600080fd5b505af115801562000b48573d6000803e3d6000fd5b505050506040513d601f19601f8201168201806040525081019062000b6e919062001b56565b60028054600e9062000b92908490600160701b90046001600160701b031662001e12565b92506101000a8154816001600160701b0302191690836001600160701b03160217905550505050565b600082815260016020526040812062000bd590836200152d565b9392505050565b6000806000806004858154811062000c0457634e487b7160e01b600052603260045260246000fd5b6000918252602090912001546040516370a0823160e01b81526001600160a01b038881166004830152600160201b909204909116915081906370a082319060240160206040518083038186803b15801562000c5e57600080fd5b505afa15801562000c73573d6000803e3d6000fd5b505050506040513d601f19601f8201168201806040525081019062000c99919062001b75565b604051631faebd0360e11b81526001600160a01b03888116600483015291955090821690633f5d7a069060240160206040518083038186803b15801562000cdf57600080fd5b505afa15801562000cf4573d6000803e3d6000fd5b505050506040513d601f19601f8201168201806040525081019062000d1a919062001b56565b604051631d58ca0f60e21b81526001600160a01b03888116600483015291945090821690637563283c9060240160206040518083038186803b15801562000d6057600080fd5b505afa15801562000d75573d6000803e3d6000fd5b505050506040513d601f19601f8201168201806040525081019062000d9b919062001be8565b9150509250925092565b6000918252602082815260408084206001600160a01b0393909316845291905290205460ff1690565b600081815260016020526040812062000551906200153b565b6004818154811062000e0957634e487b7160e01b600052603260045260246000fd5b600091825260209091200154604051633971e1b960e01b8152336004820152600160201b9091046001600160a01b031690633971e1b990602401602060405180830381600087803b15801562000e5e57600080fd5b505af115801562000e73573d6000803e3d6000fd5b505050506040513d601f19601f8201168201806040525081019062000e99919062001b56565b60028054600e9062000ebd908490600160701b90046001600160701b031662001e12565b92506101000a8154816001600160701b0302191690836001600160701b0316021790555050565b60005b600454811015620009865762000efd8162000979565b8062000f098162001ea4565b91505062000ee7565b620005a4828262001546565b600061271062000f49600485815481106200067c57634e487b7160e01b600052603260045260246000fd5b62000f579061271062001d5c565b62000f699063ffffffff168462001df0565b62000f75919062001da7565b60035460405163079cc67960e41b8152336004820152602481018590529192506001600160a01b0316906379cc679090604401600060405180830381600087803b15801562000fc357600080fd5b505af115801562000fd8573d6000803e3d6000fd5b505050506004838154811062000ffe57634e487b7160e01b600052603260045260246000fd5b600091825260209091200154604051636367a5b960e01b81523360048201526001600160701b0383166024820152600160201b9091046001600160a01b031690636367a5b990604401602060405180830381600087803b1580156200106257600080fd5b505af115801562001077573d6000803e3d6000fd5b505050506040513d601f19601f820116820180604052508101906200109d919062001b56565b60028054600e9062000b92908490600160701b90046001600160701b031662001d1c565b6002546000906001600160701b03808216600160701b9092041611620010e5575090565b6002546001600160701b03600160701b82048116916200110d911663ffffffff851662001dbe565b62000551919062001d7e565b620011248162000979565b620009868162000de7565b600060008051602062003d288339815191526200114d8133620014be565b600060405180602001620011619062001a09565b601f1982820381018352601f9091011660408181526003546001600160a01b0316602083015263ffffffff898116918301919091528716606082015260800160408051601f1981840301815290829052620011c0929160200162001c3b565b60408051601f198184030181529082905260035460601b6bffffffffffffffffffffffff1916602083015260e088811b6001600160e01b031990811660348501529088901b16603883015242603c8301529150600090605c016040516020818303038152906040528051906020012090506000818351602085016000f590506004805490509450600460405180604001604052806301e133808a63ffffffff168a63ffffffff1662001273919062001df0565b6200127f919062001da7565b63ffffffff90811682526001600160a01b03808616602093840152845460018101865560009586529483902084519501805494909301518116600160201b026001600160c01b03199094169490911693909317919091179055600354604051632f2ff15d60e01b8152911690632f2ff15d9062001334907f9f2df0fed2c77648de5860a4cc508cd0818c85b8b8a1ab4ceeef8d981c8956a69085906004019182526001600160a01b0316602082015260400190565b600060405180830381600087803b1580156200134f57600080fd5b505af115801562001364573d6000803e3d6000fd5b50505050505050509392505050565b60005b60045481101562000986576200138c8162000de7565b80620013988162001ea4565b91505062001376565b62000aa8828262001570565b600062000bd5836001600160a01b038416620015f8565b60006001600160e01b03198216637965db0b60e01b14806200055157506301ffc9a760e01b6001600160e01b031983161462000551565b600082815260208190526040902060010154620014198133620014be565b62000593838362001570565b6001600160a01b03811633146200149b5760405162461bcd60e51b815260206004820152602f60248201527f416363657373436f6e74726f6c3a2063616e206f6e6c792072656e6f756e636560448201526e103937b632b9903337b91039b2b63360891b60648201526084015b60405180910390fd5b62000aa882826200164a565b600062000bd5836001600160a01b038416620016b2565b620014ca828262000da5565b62000aa857620014e5816001600160a01b03166014620017da565b620014f2836020620017da565b6040516020016200150592919062001c6e565b60408051601f198184030181529082905262461bcd60e51b8252620014929160040162001ce7565b600062000bd58383620019d0565b600062000551825490565b600082815260208190526040902060010154620015648133620014be565b6200059383836200164a565b6200157c828262000da5565b62000aa8576000828152602081815260408083206001600160a01b03851684529091529020805460ff19166001179055620015b43390565b6001600160a01b0316816001600160a01b0316837f2f8788117e7eff1d82e926ec794901d17c78024a50270940304540a733656f0d60405160405180910390a45050565b6000818152600183016020526040812054620016415750815460018181018455600084815260208082209093018490558454848252828601909352604090209190915562000551565b50600062000551565b62001656828262000da5565b1562000aa8576000828152602081815260408083206001600160a01b0385168085529252808320805460ff1916905551339285917ff6391f5c32d9c69d2a47ea670b442974b53935d1edc7fd64eb21e047a839171b9190a45050565b60008181526001830160205260408120548015620017cf576000620016d960018362001e3d565b8554909150600090620016ef9060019062001e3d565b9050818114620017735760008660000182815481106200171f57634e487b7160e01b600052603260045260246000fd5b90600052602060002001549050808760000184815481106200175157634e487b7160e01b600052603260045260246000fd5b6000918252602080832090910192909255918252600188019052604090208390555b85548690806200179357634e487b7160e01b600052603160045260246000fd5b60019003818190600052602060002001600090559055856001016000868152602001908152602001600020600090556001935050505062000551565b600091505062000551565b60606000620017eb83600262001df0565b620017f890600262001d41565b67ffffffffffffffff8111156200181f57634e487b7160e01b600052604160045260246000fd5b6040519080825280601f01601f1916602001820160405280156200184a576020820181803683370190505b509050600360fc1b816000815181106200187457634e487b7160e01b600052603260045260246000fd5b60200101906001600160f81b031916908160001a905350600f60fb1b81600181518110620018b257634e487b7160e01b600052603260045260246000fd5b60200101906001600160f81b031916908160001a9053506000620018d884600262001df0565b620018e590600162001d41565b90505b60018111156200197f576f181899199a1a9b1b9c1cb0b131b232b360811b85600f16601081106200192957634e487b7160e01b600052603260045260246000fd5b1a60f81b8282815181106200194e57634e487b7160e01b600052603260045260246000fd5b60200101906001600160f81b031916908160001a90535060049490941c93620019778162001e8a565b9050620018e8565b50831562000bd55760405162461bcd60e51b815260206004820181905260248201527f537472696e67733a20686578206c656e67746820696e73756666696369656e74604482015260640162001492565b6000826000018281548110620019f657634e487b7160e01b600052603260045260246000fd5b9060005260206000200154905092915050565b611e108062001f1883390190565b80356001600160a01b038116811462001a2f57600080fd5b919050565b6000806040838503121562001a47578182fd5b62001a528362001a17565b946020939093013593505050565b60008060006060848603121562001a75578081fd5b62001a808462001a17565b925060208401359150604084013562001a998162001f04565b809150509250925092565b60006020828403121562001ab6578081fd5b5035919050565b6000806040838503121562001ad0578182fd5b8235915062001ae26020840162001a17565b90509250929050565b6000806040838503121562001afe578182fd5b50508035926020909101359150565b60006020828403121562001b1f578081fd5b81356001600160e01b03198116811462000bd5578182fd5b60006020828403121562001b49578081fd5b813562000bd58162001eee565b60006020828403121562001b68578081fd5b815162000bd58162001eee565b60006020828403121562001b87578081fd5b5051919050565b60008060006060848603121562001ba3578283fd5b83359250602084013562001bb78162001f04565b9150604084013562001a998162001f04565b60006020828403121562001bdb578081fd5b813562000bd58162001f04565b60006020828403121562001bfa578081fd5b815162000bd58162001f04565b60008060006060848603121562001c1c578283fd5b833562001c298162001f04565b9250602084013562001bb78162001f04565b6000835162001c4f81846020880162001e57565b83519083019062001c6581836020880162001e57565b01949350505050565b7f416363657373436f6e74726f6c3a206163636f756e742000000000000000000081526000835162001ca881601785016020880162001e57565b7001034b99036b4b9b9b4b733903937b6329607d1b601791840191820152835162001cdb81602884016020880162001e57565b01602801949350505050565b602081526000825180602084015262001d0881604085016020870162001e57565b601f01601f19169190910160400192915050565b60006001600160701b0380831681851680830382111562001c655762001c6562001ec2565b6000821982111562001d575762001d5762001ec2565b500190565b600063ffffffff80831681851680830382111562001c655762001c6562001ec2565b60006001600160701b038084168062001d9b5762001d9b62001ed8565b92169190910492915050565b60008262001db95762001db962001ed8565b500490565b60006001600160701b038083168185168183048111821515161562001de75762001de762001ec2565b02949350505050565b600081600019048311821515161562001e0d5762001e0d62001ec2565b500290565b60006001600160701b038381169083168181101562001e355762001e3562001ec2565b039392505050565b60008282101562001e525762001e5262001ec2565b500390565b60005b8381101562001e7457818101518382015260200162001e5a565b8381111562001e84576000848401525b50505050565b60008162001e9c5762001e9c62001ec2565b506000190190565b600060001982141562001ebb5762001ebb62001ec2565b5060010190565b634e487b7160e01b600052601160045260246000fd5b634e487b7160e01b600052601260045260246000fd5b6001600160701b03811681146200098657600080fd5b63ffffffff811681146200098657600080fdfe60806040523480156200001157600080fd5b5060405162001e1038038062001e10833981016040819052620000349162000250565b62000041600033620000d1565b6200006d7f573321b8a13c75b2702bc4b0ad9afaae98bf6985285411964a564e68bf6da1c933620000d1565b600280546001600160a01b0319166001600160a01b03949094169390931790925560048054600160701b600160b01b031916600160901b63ffffffff9384160263ffffffff60701b191617600160701b9290931691909102919091179055620002a5565b620000e882826200011460201b620010081760201c565b60008281526001602090815260409091206200010f9183906200101662000124821b17901c565b505050565b62000120828262000144565b5050565b60006200013b836001600160a01b038416620001e4565b90505b92915050565b6000828152602081815260408083206001600160a01b038516845290915290205460ff1662000120576000828152602081815260408083206001600160a01b03851684529091529020805460ff19166001179055620001a03390565b6001600160a01b0316816001600160a01b0316837f2f8788117e7eff1d82e926ec794901d17c78024a50270940304540a733656f0d60405160405180910390a45050565b60008181526001830160205260408120546200022d575081546001818101845560008481526020808220909301849055845484825282860190935260409020919091556200013e565b5060006200013e565b805163ffffffff811681146200024b57600080fd5b919050565b60008060006060848603121562000265578283fd5b83516001600160a01b03811681146200027c578384fd5b92506200028c6020850162000236565b91506200029c6040850162000236565b90509250925092565b611b5b80620002b56000396000f3fe608060405234801561001057600080fd5b506004361061014d5760003560e01c80636367a5b9116100c35780639d5a239f1161007c5780639d5a239f1461035d578063a217fddf14610370578063af157a7814610378578063ca15c8731461038f578063d547741f146103a2578063dd3a153b146103b557600080fd5b80636367a5b9146102b35780636bc6f057146102c657806370a08231146102d95780637563283c146102ec5780639010d07c1461033757806391d148541461034a57600080fd5b80632f2ff15d116101155780632f2ff15d146101fe57806336568abe146102135780633971e1b9146102265780633f5d7a06146102395780635c5df5781461026e5780635ce34a991461028857600080fd5b806301ffc9a7146101525780630cbcb3ac1461017a578063248a9ca3146101a5578063250b4a1f146101d65780632e285051146101e9575b600080fd5b610165610160366004611862565b6103cc565b60405190151581526020015b60405180910390f35b61018d6101883660046117d5565b6103f7565b6040516001600160701b039091168152602001610171565b6101c86101b3366004611807565b60009081526020819052604090206001015490565b604051908152602001610171565b60035461018d906001600160701b031681565b6101c8600080516020611b0683398151915281565b61021161020c36600461181f565b61096b565b005b61021161022136600461181f565b610992565b61018d61023436600461177a565b6109b4565b61018d61024736600461177a565b6001600160a01b03166000908152600560205260409020600101546001600160701b031690565b60035461018d90600160701b90046001600160701b031681565b60025461029b906001600160a01b031681565b6040516001600160a01b039091168152602001610171565b61018d6102c1366004611794565b610c8f565b60045461018d906001600160701b031681565b6101c86102e736600461177a565b610eab565b6103226102fa36600461177a565b6001600160a01b0316600090815260056020526040902054600160e01b900463ffffffff1690565b60405163ffffffff9091168152602001610171565b61029b610345366004611841565b610eef565b61016561035836600461181f565b610f0e565b61021161036b36600461188a565b610f37565b6101c8600081565b60045461032290600160901b900463ffffffff1681565b6101c861039d366004611807565b610fe7565b6102116103b036600461181f565b610ffe565b60045461032290600160701b900463ffffffff1681565b60006001600160e01b03198216635a05180f60e01b14806103f157506103f18261102b565b92915050565b6000600080516020611b068339815191526104128133611060565b6001600160a01b03841660009081526005602052604090204263ffffffff851611156104ab5760405162461bcd60e51b815260206004820152603b60248201527f4368726f6e6f56657374696e673a2043616e6e6f74207570646174652061636360448201527f6f756e7420706173742063757272656e742074696d657374616d70000000000060648201526084015b60405180910390fd5b8054600160e01b900463ffffffff1660005b8563ffffffff168263ffffffff16101561075c5760008080526003840160209081526040808320600184528252808320548352600486019091529020805463ffffffff888116600160701b9092041610801561052657508054600160701b900463ffffffff1615155b1561071e57600184015481546001600160701b0390911690610556908590600160701b900463ffffffff16611a75565b63ffffffff1661056691906119e8565b610570908361194c565b81546001860154600160701b80830463ffffffff1696509294506001600160701b03918216929004161561064e5760018501546001600160701b03600160701b909104811690821611610610578085600101600e8282829054906101000a90046001600160701b03166105e39190611a36565b92506101000a8154816001600160701b0302191690836001600160701b031602179055506000905061064e565b600185015461062f90600160701b90046001600160701b031682611a36565b6001860180546dffffffffffffffffffffffffffff60701b1916905590505b60018501805482919060009061066e9084906001600160701b0316611a36565b92506101000a8154816001600160701b0302191690836001600160701b0316021790555080600460008282829054906101000a90046001600160701b03166106b69190611a36565b92506101000a8154816001600160701b0302191690836001600160701b0316021790555080876106e6919061194c565b96508460040160006106fa876002016110c4565b8152602081019190915260400160002080546001600160901b031916905550610756565b60018401546001600160701b03166107368489611a75565b63ffffffff1661074691906119e8565b610750908361194c565b91508692505b506104bd565b60018301546001600160701b03161580156107aa575082546000908290610795906001600160701b03600160701b820481169116611a36565b61079f9190611a36565b6001600160701b0316115b156107d05782546107cd906001600160701b03600160701b820481169116611a36565b90505b825481908490600e906107f4908490600160701b90046001600160701b031661194c565b82546101009290920a6001600160701b0381810219909316918316021790915584546001600160e01b0316600160e01b63ffffffff861602178555600380548493509091600e9161084e918591600160701b90041661194c565b82546101009290920a6001600160701b038181021990931691831602179091556002546040516340c10f1960e01b81526001600160a01b038b811660048301529285166024820152911691506340c10f1990604401600060405180830381600087803b1580156108bd57600080fd5b505af11580156108d1573d6000803e3d6000fd5b505084546001600160701b03808216600160701b909204161115915061096190505760405162461bcd60e51b815260206004820152603860248201527f4368726f6e6f56657374696e673a2043616e206e6576657220636c61696d206d60448201527f6f72652072657761726473207468616e206772616e746564000000000000000060648201526084016104a2565b5050505092915050565b610975828261114e565b600082815260016020526040902061098d9082611016565b505050565b61099c8282611174565b600082815260016020526040902061098d90826111ee565b6000600080516020611b068339815191526109cf8133611060565b6001600160a01b03831660009081526005602052604081208054909190610a08906001600160701b03600160701b820481169116611a36565b6004546001600160701b0391909116915060009061271090610a3790600160901b900463ffffffff1684611a17565b610a4191906119d4565b6001840180546001600160701b0380821698509293508792600e91610a6f918591600160701b90041661194c565b92506101000a8154816001600160701b0302191690836001600160701b0316021790555084600460008282829054906101000a90046001600160701b0316610ab79190611a36565b82546001600160701b039182166101009390930a9283029190920219909116179055506001830180546dffffffffffffffffffffffffffff191690556002546040516340c10f1960e01b81526001600160a01b03888116600483015260248201849052909116906340c10f1990604401600060405180830381600087803b158015610b4157600080fd5b505af1158015610b55573d6000803e3d6000fd5b5050505060008183610b679190611a36565b845490915081908590600090610b879084906001600160701b0316611a36565b92506101000a8154816001600160701b0302191690836001600160701b031602179055508184600001600e8282829054906101000a90046001600160701b0316610bd1919061194c565b92506101000a8154816001600160701b0302191690836001600160701b0316021790555080600360008282829054906101000a90046001600160701b0316610c199190611a36565b92506101000a8154816001600160701b0302191690836001600160701b03160217905550816003600e8282829054906101000a90046001600160701b0316610c61919061194c565b92506101000a8154816001600160701b0302191690836001600160701b031602179055505050505050919050565b6000600080516020611b06833981519152610caa8133611060565b610cb484426103f7565b506001600160a01b03841660009081526005602052604081206003805491928692610ce99084906001600160701b031661194c565b92506101000a8154816001600160701b0302191690836001600160701b03160217905550838160000160008282829054906101000a90046001600160701b0316610d33919061194c565b92506101000a8154816001600160701b0302191690836001600160701b031602179055506004600e9054906101000a900463ffffffff1663ffffffff1684610d7b91906119ae565b6001820180549194508491600090610d9d9084906001600160701b031661194c565b92506101000a8154816001600160701b0302191690836001600160701b0316021790555082600460008282829054906101000a90046001600160701b0316610de5919061194c565b92506101000a8154816001600160701b0302191690836001600160701b031602179055506040518060400160405280846001600160701b031681526020016004600e9054906101000a900463ffffffff1642610e41919061198f565b63ffffffff169052600482016000610e5b60028501611203565b815260208082019290925260400160002082518154939092015163ffffffff16600160701b026001600160901b03199093166001600160701b039092169190911791909117905550909392505050565b6001600160a01b038116600090815260056020526040812054610ee0906001600160701b03600160701b820481169116611a36565b6001600160701b031692915050565b6000828152600160205260408120610f07908361126a565b9392505050565b6000918252602082815260408084206001600160a01b0393909316845291905290205460ff1690565b600080516020611b06833981519152610f508133611060565b6127108263ffffffff161115610fc05760405162461bcd60e51b815260206004820152602f60248201527f43616e6e6f7420736574206561726c792065786974206869676865722074686160448201526e6e20746f74616c2076657374696e6760881b60648201526084016104a2565b506004805463ffffffff909216600160901b0263ffffffff60901b19909216919091179055565b60008181526001602052604081206103f190611276565b61099c8282611280565b61101282826112a6565b5050565b6000610f07836001600160a01b03841661132a565b60006001600160e01b03198216637965db0b60e01b14806103f157506301ffc9a760e01b6001600160e01b03198316146103f1565b61106a8282610f0e565b61101257611082816001600160a01b03166014611379565b61108d836020611379565b60405160200161109e9291906118a4565b60408051601f198184030181529082905262461bcd60e51b82526104a291600401611919565b6000808052600182810160208181526040808520848652825280852054808652928252808520858052909152808420548385529084205491926111099286929161155b565b60008181526001848101602090815260408084208480529091528083208390558183528220829055845490918591611142908490611a5e565b90915550909392505050565b60008281526020819052604090206001015461116a8133611060565b61098d83836112a6565b6001600160a01b03811633146111e45760405162461bcd60e51b815260206004820152602f60248201527f416363657373436f6e74726f6c3a2063616e206f6e6c792072656e6f756e636560448201526e103937b632b9903337b91039b2b63360891b60648201526084016104a2565b6110128282611590565b6000610f07836001600160a01b0384166115f5565b600080805260018083016020908152604080842090915282205490829061122b908390611977565b905061123b84600083600061155b565b611248848284600061155b565b600184600001600082825461125d9190611977565b9091555090949350505050565b6000610f078383611712565b60006103f1825490565b60008281526020819052604090206001015461129c8133611060565b61098d8383611590565b6112b08282610f0e565b611012576000828152602081815260408083206001600160a01b03851684529091529020805460ff191660011790556112e63390565b6001600160a01b0316816001600160a01b0316837f2f8788117e7eff1d82e926ec794901d17c78024a50270940304540a733656f0d60405160405180910390a45050565b6000818152600183016020526040812054611371575081546001818101845560008481526020808220909301849055845484825282860190935260409020919091556103f1565b5060006103f1565b60606000611388836002611a17565b611393906002611977565b67ffffffffffffffff8111156113b957634e487b7160e01b600052604160045260246000fd5b6040519080825280601f01601f1916602001820160405280156113e3576020820181803683370190505b509050600360fc1b8160008151811061140c57634e487b7160e01b600052603260045260246000fd5b60200101906001600160f81b031916908160001a905350600f60fb1b8160018151811061144957634e487b7160e01b600052603260045260246000fd5b60200101906001600160f81b031916908160001a905350600061146d846002611a17565b611478906001611977565b90505b600181111561150c576f181899199a1a9b1b9c1cb0b131b232b360811b85600f16601081106114ba57634e487b7160e01b600052603260045260246000fd5b1a60f81b8282815181106114de57634e487b7160e01b600052603260045260246000fd5b60200101906001600160f81b031916908160001a90535060049490941c9361150581611ac2565b905061147b565b508315610f075760405162461bcd60e51b815260206004820181905260248201527f537472696e67733a20686578206c656e67746820696e73756666696369656e7460448201526064016104a2565b600082815260019094016020818152604080872093158088529382528087208690559486529081528385209115855252912055565b61159a8282610f0e565b15611012576000828152602081815260408083206001600160a01b0385168085529252808320805460ff1916905551339285917ff6391f5c32d9c69d2a47ea670b442974b53935d1edc7fd64eb21e047a839171b9190a45050565b60008181526001830160205260408120548015611708576000611619600183611a5e565b855490915060009061162d90600190611a5e565b90508181146116ae57600086600001828154811061165b57634e487b7160e01b600052603260045260246000fd5b906000526020600020015490508087600001848154811061168c57634e487b7160e01b600052603260045260246000fd5b6000918252602080832090910192909255918252600188019052604090208390555b85548690806116cd57634e487b7160e01b600052603160045260246000fd5b6001900381819060005260206000200160009055905585600101600086815260200190815260200160002060009055600193505050506103f1565b60009150506103f1565b600082600001828154811061173757634e487b7160e01b600052603260045260246000fd5b9060005260206000200154905092915050565b80356001600160a01b038116811461176157600080fd5b919050565b803563ffffffff8116811461176157600080fd5b60006020828403121561178b578081fd5b610f078261174a565b600080604083850312156117a6578081fd5b6117af8361174a565b915060208301356001600160701b03811681146117ca578182fd5b809150509250929050565b600080604083850312156117e7578182fd5b6117f08361174a565b91506117fe60208401611766565b90509250929050565b600060208284031215611818578081fd5b5035919050565b60008060408385031215611831578182fd5b823591506117fe6020840161174a565b60008060408385031215611853578182fd5b50508035926020909101359150565b600060208284031215611873578081fd5b81356001600160e01b031981168114610f07578182fd5b60006020828403121561189b578081fd5b610f0782611766565b7f416363657373436f6e74726f6c3a206163636f756e74200000000000000000008152600083516118dc816017850160208801611a92565b7001034b99036b4b9b9b4b733903937b6329607d1b601791840191820152835161190d816028840160208801611a92565b01602801949350505050565b6020815260008251806020840152611938816040850160208701611a92565b601f01601f19169190910160400192915050565b60006001600160701b0380831681851680830382111561196e5761196e611ad9565b01949350505050565b6000821982111561198a5761198a611ad9565b500190565b600063ffffffff80831681851680830382111561196e5761196e611ad9565b60006001600160701b03808416806119c8576119c8611aef565b92169190910492915050565b6000826119e3576119e3611aef565b500490565b60006001600160701b0380831681851681830481118215151615611a0e57611a0e611ad9565b02949350505050565b6000816000190483118215151615611a3157611a31611ad9565b500290565b60006001600160701b0383811690831681811015611a5657611a56611ad9565b039392505050565b600082821015611a7057611a70611ad9565b500390565b600063ffffffff83811690831681811015611a5657611a56611ad9565b60005b83811015611aad578181015183820152602001611a95565b83811115611abc576000848401525b50505050565b600081611ad157611ad1611ad9565b506000190190565b634e487b7160e01b600052601160045260246000fd5b634e487b7160e01b600052601260045260246000fdfe573321b8a13c75b2702bc4b0ad9afaae98bf6985285411964a564e68bf6da1c9a26469706673582212202d0cf189e4ae9474f3404d7316832fb46a2600fa8edb15ecbdedb12764b0a56464736f6c63430008040033480cd783f889958524a857f8dbd171afd0b29bb49ea49d4873a0680c6bd91c8da26469706673582212200ef9aca74a1270d52ffd1186240d1bf17cbffe47030ca7e66a85a2f1ddadce4764736f6c63430008040033",
  "linkReferences": {},
  "deployedLinkReferences": {}
}