{
  "_format": "hh-sol-artifact-1",
  "contractName": "CZFarm",
  "sourceName": "contracts/CZFarm.sol",
  "abi": [
    {
      "inputs": [],
      "stateMutability": "nonpayable",
      "type": "constructor"
    },
    {
      "anonymous": false,
      "inputs": [
        {
          "indexed": true,
          "internalType": "address",
          "name": "owner",
          "type": "address"
        },
        {
          "indexed": true,
          "internalType": "address",
          "name": "spender",
          "type": "address"
        },
        {
          "indexed": false,
          "internalType": "uint256",
          "name": "value",
          "type": "uint256"
        }
      ],
      "name": "Approval",
      "type": "event"
    },
    {
      "anonymous": false,
      "inputs": [
        {
          "indexed": true,
          "internalType": "address",
          "name": "previousOwner",
          "type": "address"
        },
        {
          "indexed": true,
          "internalType": "address",
          "name": "newOwner",
          "type": "address"
        }
      ],
      "name": "OwnershipTransferred",
      "type": "event"
    },
    {
      "anonymous": false,
      "inputs": [
        {
          "indexed": false,
          "internalType": "address",
          "name": "account",
          "type": "address"
        }
      ],
      "name": "Paused",
      "type": "event"
    },
    {
      "anonymous": false,
      "inputs": [
        {
          "indexed": true,
          "internalType": "bytes32",
          "name": "role",
          "type": "bytes32"
        },
        {
          "indexed": true,
          "internalType": "bytes32",
          "name": "previousAdminRole",
          "type": "bytes32"
        },
        {
          "indexed": true,
          "internalType": "bytes32",
          "name": "newAdminRole",
          "type": "bytes32"
        }
      ],
      "name": "RoleAdminChanged",
      "type": "event"
    },
    {
      "anonymous": false,
      "inputs": [
        {
          "indexed": true,
          "internalType": "bytes32",
          "name": "role",
          "type": "bytes32"
        },
        {
          "indexed": true,
          "internalType": "address",
          "name": "account",
          "type": "address"
        },
        {
          "indexed": true,
          "internalType": "address",
          "name": "sender",
          "type": "address"
        }
      ],
      "name": "RoleGranted",
      "type": "event"
    },
    {
      "anonymous": false,
      "inputs": [
        {
          "indexed": true,
          "internalType": "bytes32",
          "name": "role",
          "type": "bytes32"
        },
        {
          "indexed": true,
          "internalType": "address",
          "name": "account",
          "type": "address"
        },
        {
          "indexed": true,
          "internalType": "address",
          "name": "sender",
          "type": "address"
        }
      ],
      "name": "RoleRevoked",
      "type": "event"
    },
    {
      "anonymous": false,
      "inputs": [
        {
          "indexed": true,
          "internalType": "address",
          "name": "from",
          "type": "address"
        },
        {
          "indexed": true,
          "internalType": "address",
          "name": "to",
          "type": "address"
        },
        {
          "indexed": false,
          "internalType": "uint256",
          "name": "value",
          "type": "uint256"
        }
      ],
      "name": "Transfer",
      "type": "event"
    },
    {
      "anonymous": false,
      "inputs": [
        {
          "indexed": false,
          "internalType": "address",
          "name": "account",
          "type": "address"
        }
      ],
      "name": "Unpaused",
      "type": "event"
    },
    {
      "inputs": [],
      "name": "DEFAULT_ADMIN_ROLE",
      "outputs": [
        {
          "internalType": "bytes32",
          "name": "",
          "type": "bytes32"
        }
      ],
      "stateMutability": "view",
      "type": "function"
    },
    {
      "inputs": [],
      "name": "MINTER_ROLE",
      "outputs": [
        {
          "internalType": "bytes32",
          "name": "",
          "type": "bytes32"
        }
      ],
      "stateMutability": "view",
      "type": "function"
    },
    {
      "inputs": [],
      "name": "PAUSER_ROLE",
      "outputs": [
        {
          "internalType": "bytes32",
          "name": "",
          "type": "bytes32"
        }
      ],
      "stateMutability": "view",
      "type": "function"
    },
    {
      "inputs": [],
      "name": "SAFE_GRANTER_ROLE",
      "outputs": [
        {
          "internalType": "bytes32",
          "name": "",
          "type": "bytes32"
        }
      ],
      "stateMutability": "view",
      "type": "function"
    },
    {
      "inputs": [
        {
          "internalType": "address",
          "name": "owner",
          "type": "address"
        },
        {
          "internalType": "address",
          "name": "spender",
          "type": "address"
        }
      ],
      "name": "allowance",
      "outputs": [
        {
          "internalType": "uint256",
          "name": "",
          "type": "uint256"
        }
      ],
      "stateMutability": "view",
      "type": "function"
    },
    {
      "inputs": [
        {
          "internalType": "address",
          "name": "spender",
          "type": "address"
        },
        {
          "internalType": "uint256",
          "name": "amount",
          "type": "uint256"
        }
      ],
      "name": "approve",
      "outputs": [
        {
          "internalType": "bool",
          "name": "",
          "type": "bool"
        }
      ],
      "stateMutability": "nonpayable",
      "type": "function"
    },
    {
      "inputs": [
        {
          "internalType": "address",
          "name": "account",
          "type": "address"
        }
      ],
      "name": "balanceOf",
      "outputs": [
        {
          "internalType": "uint256",
          "name": "",
          "type": "uint256"
        }
      ],
      "stateMutability": "view",
      "type": "function"
    },
    {
      "inputs": [
        {
          "internalType": "uint256",
          "name": "amount",
          "type": "uint256"
        }
      ],
      "name": "burn",
      "outputs": [],
      "stateMutability": "nonpayable",
      "type": "function"
    },
    {
      "inputs": [
        {
          "internalType": "address",
          "name": "account",
          "type": "address"
        },
        {
          "internalType": "uint256",
          "name": "amount",
          "type": "uint256"
        }
      ],
      "name": "burnFrom",
      "outputs": [],
      "stateMutability": "nonpayable",
      "type": "function"
    },
    {
      "inputs": [],
      "name": "decimals",
      "outputs": [
        {
          "internalType": "uint8",
          "name": "",
          "type": "uint8"
        }
      ],
      "stateMutability": "view",
      "type": "function"
    },
    {
      "inputs": [
        {
          "internalType": "address",
          "name": "spender",
          "type": "address"
        },
        {
          "internalType": "uint256",
          "name": "subtractedValue",
          "type": "uint256"
        }
      ],
      "name": "decreaseAllowance",
      "outputs": [
        {
          "internalType": "bool",
          "name": "",
          "type": "bool"
        }
      ],
      "stateMutability": "nonpayable",
      "type": "function"
    },
    {
      "inputs": [
        {
          "internalType": "bytes32",
          "name": "role",
          "type": "bytes32"
        }
      ],
      "name": "getRoleAdmin",
      "outputs": [
        {
          "internalType": "bytes32",
          "name": "",
          "type": "bytes32"
        }
      ],
      "stateMutability": "view",
      "type": "function"
    },
    {
      "inputs": [
        {
          "internalType": "bytes32",
          "name": "role",
          "type": "bytes32"
        },
        {
          "internalType": "uint256",
          "name": "index",
          "type": "uint256"
        }
      ],
      "name": "getRoleMember",
      "outputs": [
        {
          "internalType": "address",
          "name": "",
          "type": "address"
        }
      ],
      "stateMutability": "view",
      "type": "function"
    },
    {
      "inputs": [
        {
          "internalType": "bytes32",
          "name": "role",
          "type": "bytes32"
        }
      ],
      "name": "getRoleMemberCount",
      "outputs": [
        {
          "internalType": "uint256",
          "name": "",
          "type": "uint256"
        }
      ],
      "stateMutability": "view",
      "type": "function"
    },
    {
      "inputs": [
        {
          "internalType": "bytes32",
          "name": "role",
          "type": "bytes32"
        },
        {
          "internalType": "address",
          "name": "account",
          "type": "address"
        }
      ],
      "name": "grantRole",
      "outputs": [],
      "stateMutability": "nonpayable",
      "type": "function"
    },
    {
      "inputs": [
        {
          "internalType": "bytes32",
          "name": "role",
          "type": "bytes32"
        },
        {
          "internalType": "address",
          "name": "account",
          "type": "address"
        }
      ],
      "name": "hasRole",
      "outputs": [
        {
          "internalType": "bool",
          "name": "",
          "type": "bool"
        }
      ],
      "stateMutability": "view",
      "type": "function"
    },
    {
      "inputs": [
        {
          "internalType": "address",
          "name": "spender",
          "type": "address"
        },
        {
          "internalType": "uint256",
          "name": "addedValue",
          "type": "uint256"
        }
      ],
      "name": "increaseAllowance",
      "outputs": [
        {
          "internalType": "bool",
          "name": "",
          "type": "bool"
        }
      ],
      "stateMutability": "nonpayable",
      "type": "function"
    },
    {
      "inputs": [
        {
          "internalType": "address",
          "name": "to",
          "type": "address"
        },
        {
          "internalType": "uint256",
          "name": "amount",
          "type": "uint256"
        }
      ],
      "name": "mint",
      "outputs": [],
      "stateMutability": "nonpayable",
      "type": "function"
    },
    {
      "inputs": [],
      "name": "name",
      "outputs": [
        {
          "internalType": "string",
          "name": "",
          "type": "string"
        }
      ],
      "stateMutability": "view",
      "type": "function"
    },
    {
      "inputs": [],
      "name": "owner",
      "outputs": [
        {
          "internalType": "address",
          "name": "",
          "type": "address"
        }
      ],
      "stateMutability": "view",
      "type": "function"
    },
    {
      "inputs": [],
      "name": "pause",
      "outputs": [],
      "stateMutability": "nonpayable",
      "type": "function"
    },
    {
      "inputs": [],
      "name": "paused",
      "outputs": [
        {
          "internalType": "bool",
          "name": "",
          "type": "bool"
        }
      ],
      "stateMutability": "view",
      "type": "function"
    },
    {
      "inputs": [
        {
          "internalType": "address",
          "name": "tokenAddress",
          "type": "address"
        }
      ],
      "name": "recoverERC20",
      "outputs": [],
      "stateMutability": "nonpayable",
      "type": "function"
    },
    {
      "inputs": [],
      "name": "renounceOwnership",
      "outputs": [],
      "stateMutability": "nonpayable",
      "type": "function"
    },
    {
      "inputs": [
        {
          "internalType": "bytes32",
          "name": "role",
          "type": "bytes32"
        },
        {
          "internalType": "address",
          "name": "account",
          "type": "address"
        }
      ],
      "name": "renounceRole",
      "outputs": [],
      "stateMutability": "nonpayable",
      "type": "function"
    },
    {
      "inputs": [
        {
          "internalType": "bytes32",
          "name": "role",
          "type": "bytes32"
        },
        {
          "internalType": "address",
          "name": "account",
          "type": "address"
        }
      ],
      "name": "revokeRole",
      "outputs": [],
      "stateMutability": "nonpayable",
      "type": "function"
    },
    {
      "inputs": [
        {
          "internalType": "address",
          "name": "_for",
          "type": "address"
        }
      ],
      "name": "setContractSafe",
      "outputs": [],
      "stateMutability": "nonpayable",
      "type": "function"
    },
    {
      "inputs": [
        {
          "internalType": "address",
          "name": "_for",
          "type": "address"
        }
      ],
      "name": "setContractUnsafe",
      "outputs": [],
      "stateMutability": "nonpayable",
      "type": "function"
    },
    {
      "inputs": [
        {
          "internalType": "bytes4",
          "name": "interfaceId",
          "type": "bytes4"
        }
      ],
      "name": "supportsInterface",
      "outputs": [
        {
          "internalType": "bool",
          "name": "",
          "type": "bool"
        }
      ],
      "stateMutability": "view",
      "type": "function"
    },
    {
      "inputs": [],
      "name": "symbol",
      "outputs": [
        {
          "internalType": "string",
          "name": "",
          "type": "string"
        }
      ],
      "stateMutability": "view",
      "type": "function"
    },
    {
      "inputs": [],
      "name": "totalSupply",
      "outputs": [
        {
          "internalType": "uint256",
          "name": "",
          "type": "uint256"
        }
      ],
      "stateMutability": "view",
      "type": "function"
    },
    {
      "inputs": [
        {
          "internalType": "address",
          "name": "recipient",
          "type": "address"
        },
        {
          "internalType": "uint256",
          "name": "amount",
          "type": "uint256"
        }
      ],
      "name": "transfer",
      "outputs": [
        {
          "internalType": "bool",
          "name": "",
          "type": "bool"
        }
      ],
      "stateMutability": "nonpayable",
      "type": "function"
    },
    {
      "inputs": [
        {
          "internalType": "address",
          "name": "sender",
          "type": "address"
        },
        {
          "internalType": "address",
          "name": "recipient",
          "type": "address"
        },
        {
          "internalType": "uint256",
          "name": "amount",
          "type": "uint256"
        }
      ],
      "name": "transferFrom",
      "outputs": [
        {
          "internalType": "bool",
          "name": "",
          "type": "bool"
        }
      ],
      "stateMutability": "nonpayable",
      "type": "function"
    },
    {
      "inputs": [
        {
          "internalType": "address",
          "name": "newOwner",
          "type": "address"
        }
      ],
      "name": "transferOwnership",
      "outputs": [],
      "stateMutability": "nonpayable",
      "type": "function"
    },
    {
      "inputs": [],
      "name": "unpause",
      "outputs": [],
      "stateMutability": "nonpayable",
      "type": "function"
    }
  ],
  "bytecode": "0x60806040523480156200001157600080fd5b506040805180820182526006815265435a4661726d60d01b60208083019182528351808501909452600384526221ad2360e91b908401528151919291839183916200005f91600591620002e6565b50805162000075906006906020840190620002e6565b50506007805460ff19169055506200008f60003362000127565b620000bb7f9f2df0fed2c77648de5860a4cc508cd0818c85b8b8a1ab4ceeef8d981c8956a63362000127565b620000e77f65d7a28e3265b37a6474929f336521b332c1681b933f6cb9f3376673440d862a3362000127565b50620000f59050336200016a565b620001217fb783451c1f2930075ab1ad4b069b0a96221786851ce3e420d98ceeacbf0747ce3362000127565b620003c9565b6200013e8282620001c460201b62000d411760201c565b60008281526001602090815260409091206200016591839062000d4b620001d4821b17901c565b505050565b600780546001600160a01b03838116610100818102610100600160a81b031985161790945560405193909204169182907f8be0079c531659141344cd1fd0a4f28419497f9722a3daafe3b4186f6b6457e090600090a35050565b620001d08282620001f4565b5050565b6000620001eb836001600160a01b03841662000294565b90505b92915050565b6000828152602081815260408083206001600160a01b038516845290915290205460ff16620001d0576000828152602081815260408083206001600160a01b03851684529091529020805460ff19166001179055620002503390565b6001600160a01b0316816001600160a01b0316837f2f8788117e7eff1d82e926ec794901d17c78024a50270940304540a733656f0d60405160405180910390a45050565b6000818152600183016020526040812054620002dd57508154600181810184556000848152602080822090930184905584548482528286019093526040902091909155620001ee565b506000620001ee565b828054620002f4906200038c565b90600052602060002090601f01602090048101928262000318576000855562000363565b82601f106200033357805160ff191683800117855562000363565b8280016001018555821562000363579182015b828111156200036357825182559160200191906001019062000346565b506200037192915062000375565b5090565b5b8082111562000371576000815560010162000376565b600181811c90821680620003a157607f821691505b60208210811415620003c357634e487b7160e01b600052602260045260246000fd5b50919050565b61214880620003d96000396000f3fe608060405234801561001057600080fd5b50600436106102105760003560e01c8063715018a611610125578063a457c2d7116100ad578063d547741f1161007c578063d547741f14610489578063dd62ed3e1461049c578063e63ab1e9146104d5578063ed8fd6fb146104fc578063f2fde38b1461050f57600080fd5b8063a457c2d714610429578063a9059cbb1461043c578063ca15c8731461044f578063d53913931461046257600080fd5b80639010d07c116100f45780639010d07c146103e057806391d14854146103f357806395d89b41146104065780639e8c708e1461040e578063a217fddf1461042157600080fd5b8063715018a61461039357806379cc67901461039b5780638456cb59146103ae5780638da5cb5b146103b657600080fd5b8063313ce567116101a857806340c10f191161017757806340c10f191461031257806342966c68146103255780635b67aa86146103385780635c975abb1461035f57806370a082311461036a57600080fd5b8063313ce567146102d557806336568abe146102e457806339509351146102f75780633f4ba83a1461030a57600080fd5b806318160ddd116101e457806318160ddd1461027a57806323b872dd1461028c578063248a9ca31461029f5780632f2ff15d146102c257600080fd5b8062ecd5091461021557806301ffc9a71461022a57806306fdde0314610252578063095ea7b314610267575b600080fd5b610228610223366004611d84565b610522565b005b61023d610238366004611eaf565b610592565b60405190151581526020015b60405180910390f35b61025a6105bd565b6040516102499190611f80565b61023d610275366004611e0b565b61064f565b6004545b604051908152602001610249565b61023d61029a366004611dd0565b610665565b61027e6102ad366004611e54565b60009081526020819052604090206001015490565b6102286102d0366004611e6c565b610711565b60405160128152602001610249565b6102286102f2366004611e6c565b610738565b61023d610305366004611e0b565b61075a565b610228610796565b610228610320366004611e0b565b61083c565b610228610333366004611e54565b6108df565b61027e7fb783451c1f2930075ab1ad4b069b0a96221786851ce3e420d98ceeacbf0747ce81565b60075460ff1661023d565b61027e610378366004611d84565b6001600160a01b031660009081526002602052604090205490565b6102286108ec565b6102286103a9366004611e0b565b610926565b6102286109c2565b60075461010090046001600160a01b03165b6040516001600160a01b039091168152602001610249565b6103c86103ee366004611e8e565b610a66565b61023d610401366004611e6c565b610a7e565b61025a610aa7565b61022861041c366004611d84565b610ab6565b61027e600081565b61023d610437366004611e0b565b610b72565b61023d61044a366004611e0b565b610c0b565b61027e61045d366004611e54565b610c18565b61027e7f9f2df0fed2c77648de5860a4cc508cd0818c85b8b8a1ab4ceeef8d981c8956a681565b610228610497366004611e6c565b610c2f565b61027e6104aa366004611d9e565b6001600160a01b03918216600090815260036020908152604080832093909416825291909152205490565b61027e7f65d7a28e3265b37a6474929f336521b332c1681b933f6cb9f3376673440d862a81565b61022861050a366004611d84565b610c39565b61022861051d366004611d84565b610ca3565b61054c7fb783451c1f2930075ab1ad4b069b0a96221786851ce3e420d98ceeacbf0747ce33610a7e565b6105715760405162461bcd60e51b815260040161056890611fb3565b60405180910390fd5b6001600160a01b03166000908152600860205260409020805460ff19169055565b60006001600160e01b03198216635a05180f60e01b14806105b757506105b782610d60565b92915050565b6060600580546105cc906120c1565b80601f01602080910402602001604051908101604052809291908181526020018280546105f8906120c1565b80156106455780601f1061061a57610100808354040283529160200191610645565b820191906000526020600020905b81548152906001019060200180831161062857829003601f168201915b5050505050905090565b600061065c338484610d95565b50600192915050565b6000610672848484610eb9565b6001600160a01b0384166000908152600360209081526040808320338452909152902054828110156106f75760405162461bcd60e51b815260206004820152602860248201527f45524332303a207472616e7366657220616d6f756e74206578636565647320616044820152676c6c6f77616e636560c01b6064820152608401610568565b6107048533858403610d95565b60019150505b9392505050565b61071b8282611094565b60008281526001602052604090206107339082610d4b565b505050565b61074282826110ba565b60008281526001602052604090206107339082611134565b3360008181526003602090815260408083206001600160a01b0387168452909152812054909161065c918590610791908690612030565b610d95565b6107c07f65d7a28e3265b37a6474929f336521b332c1681b933f6cb9f3376673440d862a33610a7e565b6108325760405162461bcd60e51b815260206004820152603960248201527f45524332305072657365744d696e7465725061757365723a206d75737420686160448201527f76652070617573657220726f6c6520746f20756e7061757365000000000000006064820152608401610568565b61083a611149565b565b6108667f9f2df0fed2c77648de5860a4cc508cd0818c85b8b8a1ab4ceeef8d981c8956a633610a7e565b6108d15760405162461bcd60e51b815260206004820152603660248201527f45524332305072657365744d696e7465725061757365723a206d7573742068616044820152751d99481b5a5b9d195c881c9bdb19481d1bc81b5a5b9d60521b6064820152608401610568565b6108db82826111dc565b5050565b6108e933826112c7565b50565b6007546001600160a01b0361010090910416331461091c5760405162461bcd60e51b815260040161056890611ffb565b61083a6000611421565b3360009081526008602052604090205460ff166109b857600061094983336104aa565b9050818110156109a75760405162461bcd60e51b8152602060048201526024808201527f45524332303a206275726e20616d6f756e74206578636565647320616c6c6f77604482015263616e636560e01b6064820152608401610568565b6109b683336107918585612067565b505b6108db82826112c7565b6109ec7f65d7a28e3265b37a6474929f336521b332c1681b933f6cb9f3376673440d862a33610a7e565b610a5e5760405162461bcd60e51b815260206004820152603760248201527f45524332305072657365744d696e7465725061757365723a206d75737420686160448201527f76652070617573657220726f6c6520746f2070617573650000000000000000006064820152608401610568565b61083a61147b565b600082815260016020526040812061070a90836114f6565b6000918252602082815260408084206001600160a01b0393909316845291905290205460ff1690565b6060600680546105cc906120c1565b6007546001600160a01b03610100909104163314610ae65760405162461bcd60e51b815260040161056890611ffb565b6108e9336040516370a0823160e01b81523060048201526001600160a01b038416906370a082319060240160206040518083038186803b158015610b2957600080fd5b505afa158015610b3d573d6000803e3d6000fd5b505050506040513d601f19601f82011682018060405250810190610b619190611ed7565b6001600160a01b0384169190611502565b3360009081526003602090815260408083206001600160a01b038616845290915281205482811015610bf45760405162461bcd60e51b815260206004820152602560248201527f45524332303a2064656372656173656420616c6c6f77616e63652062656c6f77604482015264207a65726f60d81b6064820152608401610568565b610c013385858403610d95565b5060019392505050565b600061065c338484610eb9565b60008181526001602052604081206105b790611554565b610742828261155e565b610c637fb783451c1f2930075ab1ad4b069b0a96221786851ce3e420d98ceeacbf0747ce33610a7e565b610c7f5760405162461bcd60e51b815260040161056890611fb3565b6001600160a01b03166000908152600860205260409020805460ff19166001179055565b6007546001600160a01b03610100909104163314610cd35760405162461bcd60e51b815260040161056890611ffb565b6001600160a01b038116610d385760405162461bcd60e51b815260206004820152602660248201527f4f776e61626c653a206e6577206f776e657220697320746865207a65726f206160448201526564647265737360d01b6064820152608401610568565b6108e981611421565b6108db8282611584565b600061070a836001600160a01b038416611608565b60006001600160e01b03198216637965db0b60e01b14806105b757506301ffc9a760e01b6001600160e01b03198316146105b7565b6001600160a01b038316610df75760405162461bcd60e51b8152602060048201526024808201527f45524332303a20617070726f76652066726f6d20746865207a65726f206164646044820152637265737360e01b6064820152608401610568565b6001600160a01b038216610e585760405162461bcd60e51b815260206004820152602260248201527f45524332303a20617070726f766520746f20746865207a65726f206164647265604482015261737360f01b6064820152608401610568565b6001600160a01b0383811660008181526003602090815260408083209487168084529482529182902085905590518481527f8c5be1e5ebec7d5bd14f71427d1e84f3dd0314c0f7b2291e5b200ac8c7c3b925910160405180910390a3505050565b6001600160a01b038316610f1d5760405162461bcd60e51b815260206004820152602560248201527f45524332303a207472616e736665722066726f6d20746865207a65726f206164604482015264647265737360d81b6064820152608401610568565b6001600160a01b038216610f7f5760405162461bcd60e51b815260206004820152602360248201527f45524332303a207472616e7366657220746f20746865207a65726f206164647260448201526265737360e81b6064820152608401610568565b610f8a838383611657565b6001600160a01b038316600090815260026020526040902054818110156110025760405162461bcd60e51b815260206004820152602660248201527f45524332303a207472616e7366657220616d6f756e7420657863656564732062604482015265616c616e636560d01b6064820152608401610568565b6001600160a01b03808516600090815260026020526040808220858503905591851681529081208054849290611039908490612030565b92505081905550826001600160a01b0316846001600160a01b03167fddf252ad1be2c89b69c2b068fc378daa952ba7f163c4a11628f55a4df523b3ef8460405161108591815260200190565b60405180910390a35b50505050565b6000828152602081905260409020600101546110b081336116ad565b6107338383611584565b6001600160a01b038116331461112a5760405162461bcd60e51b815260206004820152602f60248201527f416363657373436f6e74726f6c3a2063616e206f6e6c792072656e6f756e636560448201526e103937b632b9903337b91039b2b63360891b6064820152608401610568565b6108db8282611711565b600061070a836001600160a01b038416611776565b60075460ff166111925760405162461bcd60e51b815260206004820152601460248201527314185d5cd8589b194e881b9bdd081c185d5cd95960621b6044820152606401610568565b6007805460ff191690557f5db9ee0a495bf2e6ff9c91a7834c1ba4fdd244a5e8aa4e537bd38aeae4b073aa335b6040516001600160a01b03909116815260200160405180910390a1565b6001600160a01b0382166112325760405162461bcd60e51b815260206004820152601f60248201527f45524332303a206d696e7420746f20746865207a65726f2061646472657373006044820152606401610568565b61123e60008383611657565b80600460008282546112509190612030565b90915550506001600160a01b0382166000908152600260205260408120805483929061127d908490612030565b90915550506040518181526001600160a01b038316906000907fddf252ad1be2c89b69c2b068fc378daa952ba7f163c4a11628f55a4df523b3ef9060200160405180910390a35050565b6001600160a01b0382166113275760405162461bcd60e51b815260206004820152602160248201527f45524332303a206275726e2066726f6d20746865207a65726f206164647265736044820152607360f81b6064820152608401610568565b61133382600083611657565b6001600160a01b038216600090815260026020526040902054818110156113a75760405162461bcd60e51b815260206004820152602260248201527f45524332303a206275726e20616d6f756e7420657863656564732062616c616e604482015261636560f01b6064820152608401610568565b6001600160a01b03831660009081526002602052604081208383039055600480548492906113d6908490612067565b90915550506040518281526000906001600160a01b038516907fddf252ad1be2c89b69c2b068fc378daa952ba7f163c4a11628f55a4df523b3ef9060200160405180910390a3505050565b600780546001600160a01b03838116610100818102610100600160a81b031985161790945560405193909204169182907f8be0079c531659141344cd1fd0a4f28419497f9722a3daafe3b4186f6b6457e090600090a35050565b60075460ff16156114c15760405162461bcd60e51b815260206004820152601060248201526f14185d5cd8589b194e881c185d5cd95960821b6044820152606401610568565b6007805460ff191660011790557f62e78cea01bee320cd4e420270b5ea74000d11b0c9f74754ebdbfc544b05a2586111bf3390565b600061070a8383611893565b604080516001600160a01b038416602482015260448082018490528251808303909101815260649091019091526020810180516001600160e01b031663a9059cbb60e01b1790526107339084906118cb565b60006105b7825490565b60008281526020819052604090206001015461157a81336116ad565b6107338383611711565b61158e8282610a7e565b6108db576000828152602081815260408083206001600160a01b03851684529091529020805460ff191660011790556115c43390565b6001600160a01b0316816001600160a01b0316837f2f8788117e7eff1d82e926ec794901d17c78024a50270940304540a733656f0d60405160405180910390a45050565b600081815260018301602052604081205461164f575081546001818101845560008481526020808220909301849055845484825282860190935260409020919091556105b7565b5060006105b7565b61166283838361199d565b3360009081526008602052604090205460ff16801561168957506001600160a01b03831615155b801561169d57506001600160a01b03821615155b1561073357610733833383610d95565b6116b78282610a7e565b6108db576116cf816001600160a01b031660146119a8565b6116da8360206119a8565b6040516020016116eb929190611f0b565b60408051601f198184030181529082905262461bcd60e51b825261056891600401611f80565b61171b8282610a7e565b156108db576000828152602081815260408083206001600160a01b0385168085529252808320805460ff1916905551339285917ff6391f5c32d9c69d2a47ea670b442974b53935d1edc7fd64eb21e047a839171b9190a45050565b6000818152600183016020526040812054801561188957600061179a600183612067565b85549091506000906117ae90600190612067565b905081811461182f5760008660000182815481106117dc57634e487b7160e01b600052603260045260246000fd5b906000526020600020015490508087600001848154811061180d57634e487b7160e01b600052603260045260246000fd5b6000918252602080832090910192909255918252600188019052604090208390555b855486908061184e57634e487b7160e01b600052603160045260246000fd5b6001900381819060005260206000200160009055905585600101600086815260200190815260200160002060009055600193505050506105b7565b60009150506105b7565b60008260000182815481106118b857634e487b7160e01b600052603260045260246000fd5b9060005260206000200154905092915050565b6000611920826040518060400160405280602081526020017f5361666545524332303a206c6f772d6c6576656c2063616c6c206661696c6564815250856001600160a01b0316611b8a9092919063ffffffff16565b805190915015610733578080602001905181019061193e9190611e34565b6107335760405162461bcd60e51b815260206004820152602a60248201527f5361666545524332303a204552433230206f7065726174696f6e20646964206e6044820152691bdd081cdd58d8d9595960b21b6064820152608401610568565b610733838383611ba1565b606060006119b7836002612048565b6119c2906002612030565b67ffffffffffffffff8111156119e857634e487b7160e01b600052604160045260246000fd5b6040519080825280601f01601f191660200182016040528015611a12576020820181803683370190505b509050600360fc1b81600081518110611a3b57634e487b7160e01b600052603260045260246000fd5b60200101906001600160f81b031916908160001a905350600f60fb1b81600181518110611a7857634e487b7160e01b600052603260045260246000fd5b60200101906001600160f81b031916908160001a9053506000611a9c846002612048565b611aa7906001612030565b90505b6001811115611b3b576f181899199a1a9b1b9c1cb0b131b232b360811b85600f1660108110611ae957634e487b7160e01b600052603260045260246000fd5b1a60f81b828281518110611b0d57634e487b7160e01b600052603260045260246000fd5b60200101906001600160f81b031916908160001a90535060049490941c93611b34816120aa565b9050611aaa565b50831561070a5760405162461bcd60e51b815260206004820181905260248201527f537472696e67733a20686578206c656e67746820696e73756666696369656e746044820152606401610568565b6060611b998484600085611c07565b949350505050565b60075460ff16156107335760405162461bcd60e51b815260206004820152602a60248201527f45524332305061757361626c653a20746f6b656e207472616e736665722077686044820152691a5b19481c185d5cd95960b21b6064820152608401610568565b606082471015611c685760405162461bcd60e51b815260206004820152602660248201527f416464726573733a20696e73756666696369656e742062616c616e636520666f6044820152651c8818d85b1b60d21b6064820152608401610568565b843b611cb65760405162461bcd60e51b815260206004820152601d60248201527f416464726573733a2063616c6c20746f206e6f6e2d636f6e74726163740000006044820152606401610568565b600080866001600160a01b03168587604051611cd29190611eef565b60006040518083038185875af1925050503d8060008114611d0f576040519150601f19603f3d011682016040523d82523d6000602084013e611d14565b606091505b5091509150611d24828286611d2f565b979650505050505050565b60608315611d3e57508161070a565b825115611d4e5782518084602001fd5b8160405162461bcd60e51b81526004016105689190611f80565b80356001600160a01b0381168114611d7f57600080fd5b919050565b600060208284031215611d95578081fd5b61070a82611d68565b60008060408385031215611db0578081fd5b611db983611d68565b9150611dc760208401611d68565b90509250929050565b600080600060608486031215611de4578081fd5b611ded84611d68565b9250611dfb60208501611d68565b9150604084013590509250925092565b60008060408385031215611e1d578182fd5b611e2683611d68565b946020939093013593505050565b600060208284031215611e45578081fd5b8151801515811461070a578182fd5b600060208284031215611e65578081fd5b5035919050565b60008060408385031215611e7e578182fd5b82359150611dc760208401611d68565b60008060408385031215611ea0578182fd5b50508035926020909101359150565b600060208284031215611ec0578081fd5b81356001600160e01b03198116811461070a578182fd5b600060208284031215611ee8578081fd5b5051919050565b60008251611f0181846020870161207e565b9190910192915050565b7f416363657373436f6e74726f6c3a206163636f756e7420000000000000000000815260008351611f4381601785016020880161207e565b7001034b99036b4b9b9b4b733903937b6329607d1b6017918401918201528351611f7481602884016020880161207e565b01602801949350505050565b6020815260008251806020840152611f9f81604085016020870161207e565b601f01601f19169190910160400192915050565b60208082526028908201527f435a4661726d3a206d757374206861766520534146455f4752414e5445525f526040820152674f4c4520726f6c6560c01b606082015260800190565b6020808252818101527f4f776e61626c653a2063616c6c6572206973206e6f7420746865206f776e6572604082015260600190565b60008219821115612043576120436120fc565b500190565b6000816000190483118215151615612062576120626120fc565b500290565b600082821015612079576120796120fc565b500390565b60005b83811015612099578181015183820152602001612081565b8381111561108e5750506000910152565b6000816120b9576120b96120fc565b506000190190565b600181811c908216806120d557607f821691505b602082108114156120f657634e487b7160e01b600052602260045260246000fd5b50919050565b634e487b7160e01b600052601160045260246000fdfea26469706673582212200e41e921fb271dbcc3cccc7d6cab4d6b1e88206e5629f5388921b4d43d81b94064736f6c63430008040033",
  "linkReferences": {},
  "deployedLinkReferences": {}
}