{
  "_format": "hh-sol-artifact-1",
  "contractName": "ExoticMaster",
  "sourceName": "contracts/ExoticMaster.sol",
  "abi": [
    {
      "inputs": [
        {
          "internalType": "contract CZFarm",
          "name": "_czf",
          "type": "address"
        },
        {
          "internalType": "address",
          "name": "_treasury",
          "type": "address"
        },
        {
          "internalType": "uint32",
          "name": "_fastForwardLockPeriod",
          "type": "uint32"
        }
      ],
      "stateMutability": "nonpayable",
      "type": "constructor"
    },
    {
      "anonymous": false,
      "inputs": [
        {
          "indexed": false,
          "internalType": "address",
          "name": "account",
          "type": "address"
        }
      ],
      "name": "Paused",
      "type": "event"
    },
    {
      "anonymous": false,
      "inputs": [
        {
          "indexed": true,
          "internalType": "bytes32",
          "name": "role",
          "type": "bytes32"
        },
        {
          "indexed": true,
          "internalType": "bytes32",
          "name": "previousAdminRole",
          "type": "bytes32"
        },
        {
          "indexed": true,
          "internalType": "bytes32",
          "name": "newAdminRole",
          "type": "bytes32"
        }
      ],
      "name": "RoleAdminChanged",
      "type": "event"
    },
    {
      "anonymous": false,
      "inputs": [
        {
          "indexed": true,
          "internalType": "bytes32",
          "name": "role",
          "type": "bytes32"
        },
        {
          "indexed": true,
          "internalType": "address",
          "name": "account",
          "type": "address"
        },
        {
          "indexed": true,
          "internalType": "address",
          "name": "sender",
          "type": "address"
        }
      ],
      "name": "RoleGranted",
      "type": "event"
    },
    {
      "anonymous": false,
      "inputs": [
        {
          "indexed": true,
          "internalType": "bytes32",
          "name": "role",
          "type": "bytes32"
        },
        {
          "indexed": true,
          "internalType": "address",
          "name": "account",
          "type": "address"
        },
        {
          "indexed": true,
          "internalType": "address",
          "name": "sender",
          "type": "address"
        }
      ],
      "name": "RoleRevoked",
      "type": "event"
    },
    {
      "anonymous": false,
      "inputs": [
        {
          "indexed": false,
          "internalType": "address",
          "name": "account",
          "type": "address"
        }
      ],
      "name": "Unpaused",
      "type": "event"
    },
    {
      "inputs": [],
      "name": "DEFAULT_ADMIN_ROLE",
      "outputs": [
        {
          "internalType": "bytes32",
          "name": "",
          "type": "bytes32"
        }
      ],
      "stateMutability": "view",
      "type": "function"
    },
    {
      "inputs": [],
      "name": "EXOTIC_LORD",
      "outputs": [
        {
          "internalType": "bytes32",
          "name": "",
          "type": "bytes32"
        }
      ],
      "stateMutability": "view",
      "type": "function"
    },
    {
      "inputs": [
        {
          "internalType": "uint32",
          "name": "_ffBasis",
          "type": "uint32"
        },
        {
          "internalType": "uint32",
          "name": "_vestPeriod",
          "type": "uint32"
        },
        {
          "internalType": "uint32",
          "name": "_apr",
          "type": "uint32"
        },
        {
          "internalType": "contract IAmmPair",
          "name": "_lp",
          "type": "address"
        }
      ],
      "name": "addExoticFarm",
      "outputs": [
        {
          "internalType": "uint256",
          "name": "pid_",
          "type": "uint256"
        }
      ],
      "stateMutability": "nonpayable",
      "type": "function"
    },
    {
      "inputs": [],
      "name": "claimAll",
      "outputs": [],
      "stateMutability": "nonpayable",
      "type": "function"
    },
    {
      "inputs": [
        {
          "internalType": "uint256",
          "name": "_pid",
          "type": "uint256"
        }
      ],
      "name": "claimAndFastForward",
      "outputs": [],
      "stateMutability": "nonpayable",
      "type": "function"
    },
    {
      "inputs": [],
      "name": "claimAndFastForwardAll",
      "outputs": [],
      "stateMutability": "nonpayable",
      "type": "function"
    },
    {
      "inputs": [
        {
          "internalType": "uint256",
          "name": "_pid",
          "type": "uint256"
        }
      ],
      "name": "claimFarm",
      "outputs": [],
      "stateMutability": "nonpayable",
      "type": "function"
    },
    {
      "inputs": [
        {
          "internalType": "address",
          "name": "_for",
          "type": "address"
        },
        {
          "internalType": "uint256",
          "name": "_pid",
          "type": "uint256"
        },
        {
          "internalType": "uint32",
          "name": "_epoch",
          "type": "uint32"
        }
      ],
      "name": "claimFarmForTo",
      "outputs": [],
      "stateMutability": "nonpayable",
      "type": "function"
    },
    {
      "inputs": [],
      "name": "czf",
      "outputs": [
        {
          "internalType": "contract CZFarm",
          "name": "",
          "type": "address"
        }
      ],
      "stateMutability": "view",
      "type": "function"
    },
    {
      "inputs": [
        {
          "internalType": "uint256",
          "name": "_pid",
          "type": "uint256"
        },
        {
          "internalType": "uint256",
          "name": "_wad",
          "type": "uint256"
        }
      ],
      "name": "deposit",
      "outputs": [],
      "stateMutability": "nonpayable",
      "type": "function"
    },
    {
      "inputs": [
        {
          "internalType": "uint256",
          "name": "_pid",
          "type": "uint256"
        }
      ],
      "name": "emergencyFastForward",
      "outputs": [],
      "stateMutability": "nonpayable",
      "type": "function"
    },
    {
      "inputs": [],
      "name": "emergencyFastForwardAll",
      "outputs": [],
      "stateMutability": "nonpayable",
      "type": "function"
    },
    {
      "inputs": [
        {
          "internalType": "uint256",
          "name": "",
          "type": "uint256"
        }
      ],
      "name": "exoticFarms",
      "outputs": [
        {
          "internalType": "uint32",
          "name": "rateBasis",
          "type": "uint32"
        },
        {
          "internalType": "contract IAmmPair",
          "name": "lp",
          "type": "address"
        },
        {
          "internalType": "contract ChronoVesting",
          "name": "chronoVesting",
          "type": "address"
        }
      ],
      "stateMutability": "view",
      "type": "function"
    },
    {
      "inputs": [],
      "name": "fastForwardLockPeriod",
      "outputs": [
        {
          "internalType": "uint32",
          "name": "",
          "type": "uint32"
        }
      ],
      "stateMutability": "view",
      "type": "function"
    },
    {
      "inputs": [
        {
          "internalType": "uint32",
          "name": "_rateBasis",
          "type": "uint32"
        },
        {
          "internalType": "contract IAmmPair",
          "name": "_lp",
          "type": "address"
        }
      ],
      "name": "getAdjustedRateBasis",
      "outputs": [
        {
          "internalType": "uint32",
          "name": "adjustedRateBasis_",
          "type": "uint32"
        }
      ],
      "stateMutability": "view",
      "type": "function"
    },
    {
      "inputs": [
        {
          "internalType": "contract IPairOracle",
          "name": "oracle",
          "type": "address"
        },
        {
          "internalType": "contract IAmmPair",
          "name": "lp",
          "type": "address"
        }
      ],
      "name": "getCzfPerLPWad",
      "outputs": [
        {
          "internalType": "uint256",
          "name": "czfPerLPWad_",
          "type": "uint256"
        }
      ],
      "stateMutability": "view",
      "type": "function"
    },
    {
      "inputs": [
        {
          "internalType": "address",
          "name": "_for",
          "type": "address"
        },
        {
          "internalType": "uint256",
          "name": "_pid",
          "type": "uint256"
        }
      ],
      "name": "getExoticFarmAccountInfo",
      "outputs": [
        {
          "internalType": "uint256",
          "name": "totalVesting_",
          "type": "uint256"
        },
        {
          "internalType": "uint112",
          "name": "emissionRate_",
          "type": "uint112"
        },
        {
          "internalType": "uint32",
          "name": "updateEpoch_",
          "type": "uint32"
        },
        {
          "internalType": "uint32",
          "name": "fastForwardLockToEpoch_",
          "type": "uint32"
        }
      ],
      "stateMutability": "view",
      "type": "function"
    },
    {
      "inputs": [
        {
          "internalType": "uint256",
          "name": "_pid",
          "type": "uint256"
        }
      ],
      "name": "getExoticFarmInfo",
      "outputs": [
        {
          "internalType": "uint32",
          "name": "adjustedRateBasis_",
          "type": "uint32"
        },
        {
          "internalType": "uint32",
          "name": "vestPeriod_",
          "type": "uint32"
        },
        {
          "internalType": "uint32",
          "name": "ffBasis_",
          "type": "uint32"
        },
        {
          "internalType": "uint112",
          "name": "poolEmissionRate_",
          "type": "uint112"
        },
        {
          "internalType": "uint112",
          "name": "baseEmissionRate_",
          "type": "uint112"
        },
        {
          "internalType": "contract IAmmPair",
          "name": "lp_",
          "type": "address"
        },
        {
          "internalType": "uint256",
          "name": "czfPerLpWad_",
          "type": "uint256"
        }
      ],
      "stateMutability": "view",
      "type": "function"
    },
    {
      "inputs": [
        {
          "internalType": "bytes32",
          "name": "role",
          "type": "bytes32"
        }
      ],
      "name": "getRoleAdmin",
      "outputs": [
        {
          "internalType": "bytes32",
          "name": "",
          "type": "bytes32"
        }
      ],
      "stateMutability": "view",
      "type": "function"
    },
    {
      "inputs": [
        {
          "internalType": "bytes32",
          "name": "role",
          "type": "bytes32"
        },
        {
          "internalType": "uint256",
          "name": "index",
          "type": "uint256"
        }
      ],
      "name": "getRoleMember",
      "outputs": [
        {
          "internalType": "address",
          "name": "",
          "type": "address"
        }
      ],
      "stateMutability": "view",
      "type": "function"
    },
    {
      "inputs": [
        {
          "internalType": "bytes32",
          "name": "role",
          "type": "bytes32"
        }
      ],
      "name": "getRoleMemberCount",
      "outputs": [
        {
          "internalType": "uint256",
          "name": "",
          "type": "uint256"
        }
      ],
      "stateMutability": "view",
      "type": "function"
    },
    {
      "inputs": [
        {
          "internalType": "bytes32",
          "name": "role",
          "type": "bytes32"
        },
        {
          "internalType": "address",
          "name": "account",
          "type": "address"
        }
      ],
      "name": "grantRole",
      "outputs": [],
      "stateMutability": "nonpayable",
      "type": "function"
    },
    {
      "inputs": [
        {
          "internalType": "bytes32",
          "name": "role",
          "type": "bytes32"
        },
        {
          "internalType": "address",
          "name": "account",
          "type": "address"
        }
      ],
      "name": "hasRole",
      "outputs": [
        {
          "internalType": "bool",
          "name": "",
          "type": "bool"
        }
      ],
      "stateMutability": "view",
      "type": "function"
    },
    {
      "inputs": [
        {
          "internalType": "contract IAmmPair",
          "name": "",
          "type": "address"
        }
      ],
      "name": "lpEmissions",
      "outputs": [
        {
          "internalType": "uint112",
          "name": "baseEmissionRate",
          "type": "uint112"
        },
        {
          "internalType": "uint112",
          "name": "currentEmissionRate",
          "type": "uint112"
        },
        {
          "internalType": "contract IPairOracle",
          "name": "oracle",
          "type": "address"
        }
      ],
      "stateMutability": "view",
      "type": "function"
    },
    {
      "inputs": [],
      "name": "paused",
      "outputs": [
        {
          "internalType": "bool",
          "name": "",
          "type": "bool"
        }
      ],
      "stateMutability": "view",
      "type": "function"
    },
    {
      "inputs": [
        {
          "internalType": "bytes32",
          "name": "role",
          "type": "bytes32"
        },
        {
          "internalType": "address",
          "name": "account",
          "type": "address"
        }
      ],
      "name": "renounceRole",
      "outputs": [],
      "stateMutability": "nonpayable",
      "type": "function"
    },
    {
      "inputs": [
        {
          "internalType": "bytes32",
          "name": "role",
          "type": "bytes32"
        },
        {
          "internalType": "address",
          "name": "account",
          "type": "address"
        }
      ],
      "name": "revokeRole",
      "outputs": [],
      "stateMutability": "nonpayable",
      "type": "function"
    },
    {
      "inputs": [
        {
          "internalType": "uint256",
          "name": "_pid",
          "type": "uint256"
        },
        {
          "internalType": "uint32",
          "name": "_ffBasis",
          "type": "uint32"
        },
        {
          "internalType": "uint32",
          "name": "_apr",
          "type": "uint32"
        }
      ],
      "name": "setExoticFarmApr",
      "outputs": [],
      "stateMutability": "nonpayable",
      "type": "function"
    },
    {
      "inputs": [
        {
          "internalType": "uint32",
          "name": "_to",
          "type": "uint32"
        }
      ],
      "name": "setFastForwardLockPeriod",
      "outputs": [],
      "stateMutability": "nonpayable",
      "type": "function"
    },
    {
      "inputs": [
        {
          "internalType": "contract IAmmPair",
          "name": "_lp",
          "type": "address"
        },
        {
          "internalType": "uint112",
          "name": "_to",
          "type": "uint112"
        }
      ],
      "name": "setLpBaseEmissionRate",
      "outputs": [],
      "stateMutability": "nonpayable",
      "type": "function"
    },
    {
      "inputs": [
        {
          "internalType": "bool",
          "name": "_to",
          "type": "bool"
        }
      ],
      "name": "setPaused",
      "outputs": [],
      "stateMutability": "nonpayable",
      "type": "function"
    },
    {
      "inputs": [
        {
          "internalType": "address",
          "name": "_to",
          "type": "address"
        }
      ],
      "name": "setTreasury",
      "outputs": [],
      "stateMutability": "nonpayable",
      "type": "function"
    },
    {
      "inputs": [
        {
          "internalType": "bytes4",
          "name": "interfaceId",
          "type": "bytes4"
        }
      ],
      "name": "supportsInterface",
      "outputs": [
        {
          "internalType": "bool",
          "name": "",
          "type": "bool"
        }
      ],
      "stateMutability": "view",
      "type": "function"
    },
    {
      "inputs": [],
      "name": "treasury",
      "outputs": [
        {
          "internalType": "address",
          "name": "",
          "type": "address"
        }
      ],
      "stateMutability": "view",
      "type": "function"
    }
  ],
  "bytecode": "0x60806040523480156200001157600080fd5b506040516200629d3803806200629d83398101604081905262000034916200022e565b6002805460ff191690556200006a7fe9ae2b5e9447ebee770b7eae0a979f6bf5e360f511ebe0e2571485ed00534f7633620000c9565b600380546001600160a01b039485166001600160a01b03199091161790556002805463ffffffff909216600160a81b0263ffffffff60a81b19939094166101000292909216610100600160c81b031990911617919091179055620002a1565b620000e082826200010c60201b62001e441760201c565b60008281526001602090815260409091206200010791839062001e506200011c821b17901c565b505050565b6200011882826200013c565b5050565b600062000133836001600160a01b038416620001dc565b90505b92915050565b6000828152602081815260408083206001600160a01b038516845290915290205460ff1662000118576000828152602081815260408083206001600160a01b03851684529091529020805460ff19166001179055620001983390565b6001600160a01b0316816001600160a01b0316837f2f8788117e7eff1d82e926ec794901d17c78024a50270940304540a733656f0d60405160405180910390a45050565b6000818152600183016020526040812054620002255750815460018181018455600084815260208082209093018490558454848252828601909352604090209190915562000136565b50600062000136565b60008060006060848603121562000243578283fd5b8351620002508162000288565b6020850151909350620002638162000288565b604085015190925063ffffffff811681146200027d578182fd5b809150509250925092565b6001600160a01b03811681146200029e57600080fd5b50565b615fec80620002b16000396000f3fe60806040523480156200001157600080fd5b5060043610620002315760003560e01c806382079dd11162000131578063cb37bcc611620000bb578063e2bbb1581162000086578063e2bbb158146200061b578063e9ef78bb1462000632578063eb79d92c1462000649578063f0f442601462000660578063fa6cc199146200067757600080fd5b8063cb37bcc614620005cc578063d008056114620005e3578063d1058e5914620005fa578063d547741f146200060457600080fd5b8063a217fddf11620000fc578063a217fddf1462000528578063b689c3631462000531578063ba64c220146200059e578063ca15c87314620005b557600080fd5b806382079dd114620004cc57806386b214bf14620004e35780639010d07c14620004fa57806391d14854146200051157600080fd5b806336568abe11620001bf57806361d027b3116200018a57806361d027b3146200042a57806365d9ae26146200044357806367f47c7b146200045a5780636f9ef2641462000471578063795116c2146200048857600080fd5b806336568abe14620003c35780634c3aaaca14620003da5780635c975abb14620003f15780635ce34a9914620003fd57600080fd5b8063222aa5d11162000200578063222aa5d114620002d1578063248a9ca314620002ff5780632f2ff15d146200033457806330607bab146200034b57600080fd5b806301ffc9a71462000236578063117f44061462000262578063166a7bc614620002ae57806316c38b3c14620002ba575b600080fd5b6200024d6200024736600462002717565b62000681565b60405190151581526020015b60405180910390f35b6200027962000273366004620025f8565b620006af565b604080519485526001600160701b03909316602085015263ffffffff9182169284019290925216606082015260800162000259565b620002b8620008f9565b005b620002b8620002cb3660046200266c565b6200090f565b600254620002e990600160a81b900463ffffffff1681565b60405163ffffffff909116815260200162000259565b6200032562000310366004620026aa565b60009081526020819052604090206001015490565b60405190815260200162000259565b620002b862000345366004620026c3565b6200094a565b620003936200035c366004620025ba565b600460205260009081526040902080546001909101546001600160701b0380831692600160701b900416906001600160a01b031683565b604080516001600160701b0394851681529390921660208401526001600160a01b03169082015260600162000259565b620002b8620003d4366004620026c3565b62000975565b620002b8620003eb36600462002741565b6200099b565b60025460ff166200024d565b60035462000411906001600160a01b031681565b6040516001600160a01b03909116815260200162000259565b600254620004119061010090046001600160a01b031681565b620002b86200045436600462002825565b62000b5c565b6200032560008051602062005f9783398151915281565b620002b86200048236600462002860565b62000cd2565b6200049f62000499366004620026aa565b62000d15565b6040805163ffffffff90941684526001600160a01b03928316602085015291169082015260600162000259565b620002e9620004dd3660046200289e565b62000d5e565b620002b8620004f436600462002626565b62000dd7565b620004116200050b366004620026f5565b62000f6a565b6200024d62000522366004620026c3565b62000f8b565b62000325600081565b6200054862000542366004620026aa565b62000fb4565b6040805163ffffffff9889168152968816602088015294909616938501939093526001600160701b0391821660608501521660808301526001600160a01b031660a082015260c081019190915260e00162000259565b620002b8620005af366004620026aa565b620011de565b62000325620005c6366004620026aa565b620011ee565b62000325620005dd36600462002773565b62001207565b620002b8620005f4366004620026aa565b6200151d565b620002b862001715565b620002b862000615366004620026c3565b62001743565b620002b86200062c366004620026f5565b6200174f565b6200032562000643366004620028be565b62001af0565b620002b86200065a366004620026aa565b62001dbb565b620002b862000671366004620025ba565b62001dd1565b620002b862001e16565b60006001600160e01b03198216635a05180f60e01b1480620006a95750620006a98262001e67565b92915050565b600080600080600060058681548110620006d957634e487b7160e01b600052603260045260246000fd5b60009182526020909120600290910201600101546040516370a0823160e01b81526001600160a01b038981166004830152909116915081906370a082319060240160206040518083038186803b1580156200073357600080fd5b505afa15801562000748573d6000803e3d6000fd5b505050506040513d601f19601f820116820180604052508101906200076e91906200280c565b604051631faebd0360e11b81526001600160a01b03898116600483015291965090821690633f5d7a069060240160206040518083038186803b158015620007b457600080fd5b505afa158015620007c9573d6000803e3d6000fd5b505050506040513d601f19601f82011682018060405250810190620007ef9190620027a5565b604051631d58ca0f60e21b81526001600160a01b03898116600483015291955090821690637563283c9060240160206040518083038186803b1580156200083557600080fd5b505afa1580156200084a573d6000803e3d6000fd5b505050506040513d601f19601f820116820180604052508101906200087091906200287f565b60008781526006602090815260408083206001600160a01b038c16845290915290205490935063ffffffff1615620008ea5760025460008781526006602090815260408083206001600160a01b038c168452909152902054620008e49163ffffffff600160a81b9091048116911662002a6d565b620008ed565b60005b91505092959194509250565b6200090362001715565b6200090d62001e16565b565b60008051602062005f978339815191526200092b813362001e9e565b811562000940576200093c62001f0d565b5050565b6200093c62001f86565b62000956828262002003565b600082815260016020526040902062000970908262001e50565b505050565b6200098182826200202d565b6000828152600160205260409020620009709082620020ab565b60008051602062005f97833981519152620009b7813362001e9e565b6001600160a01b03838116600090815260046020526040902080546dffffffffffffffffffffffffffff19166001600160701b038516178155600101541662000970576040516bffffffffffffffffffffffff19606085901b16602082015271ffffffffffffffffffffffffffffffffffff19609084901b16603482015242604282015260009060620160405160208183030381529060405280519060200120905060006040518060200162000a6d906200259e565b601f1982820381018352601f9091011660408181526001600160a01b03881660208301520160408051601f198184030181529082905262000ab2929160200162002922565b60405160208183030381529060405290506000828251602084016000f59050806001600160a01b031663a2e620456040518163ffffffff1660e01b8152600401600060405180830381600087803b15801562000b0d57600080fd5b505af115801562000b22573d6000803e3d6000fd5b505050506001600160a01b03958616600090815260046020526040902060010180546001600160a01b031916919096161790945550505050565b60008051602062005f9783398151915262000b78813362001e9e565b60006005858154811062000b9c57634e487b7160e01b600052603260045260246000fd5b600091825260209091206002909102016001810154604051639d5a239f60e01b815263ffffffff871660048201529192506001600160a01b0316908190639d5a239f90602401600060405180830381600087803b15801562000bfd57600080fd5b505af115801562000c12573d6000803e3d6000fd5b505050506301e13380816001600160a01b031663dd3a153b6040518163ffffffff1660e01b815260040160206040518083038186803b15801562000c5557600080fd5b505afa15801562000c6a573d6000803e3d6000fd5b505050506040513d601f19601f8201168201806040525081019062000c9091906200287f565b63ffffffff168563ffffffff1662000ca9919062002b01565b62000cb5919062002ab8565b825463ffffffff191663ffffffff91909116179091555050505050565b60008051602062005f9783398151915262000cee813362001e9e565b506002805463ffffffff909216600160a81b0263ffffffff60a81b19909216919091179055565b6005818154811062000d2657600080fd5b60009182526020909120600290910201805460019091015463ffffffff821692506001600160a01b03600160201b9092048216911683565b6001600160a01b038116600090815260046020526040812080546001600160701b03808216600160701b909204161162000d9c5783915050620006a9565b80546001600160701b03600160701b820481169162000dc3911663ffffffff871662002acf565b62000dcf919062002a8f565b949350505050565b60025460ff161562000e065760405162461bcd60e51b815260040162000dfd9062002a03565b60405180910390fd5b6005828154811062000e2857634e487b7160e01b600052603260045260246000fd5b600091825260209091206002909102016001015460405163032f2ceb60e21b81526001600160a01b03858116600483015263ffffffff8416602483015290911690630cbcb3ac90604401602060405180830381600087803b15801562000e8d57600080fd5b505af115801562000ea2573d6000803e3d6000fd5b505050506040513d601f19601f8201168201806040525081019062000ec89190620027a5565b600460006005858154811062000eee57634e487b7160e01b600052603260045260246000fd5b6000918252602080832060029290920290910154600160201b90046001600160a01b0316835282019290925260400190208054600e9062000f41908490600160701b90046001600160701b031662002b23565b92506101000a8154816001600160701b0302191690836001600160701b03160217905550505050565b600082815260016020526040812062000f849083620020c2565b9392505050565b6000918252602082815260408084206001600160a01b0393909316845291905290205460ff1690565b6000806000806000806000806005898154811062000fe257634e487b7160e01b600052603260045260246000fd5b60009182526020909120600290910201600181015481549192506001600160a01b0390811691620010239163ffffffff821691600160201b90041662000d5e565b9850806001600160a01b031663dd3a153b6040518163ffffffff1660e01b815260040160206040518083038186803b1580156200105f57600080fd5b505afa15801562001074573d6000803e3d6000fd5b505050506040513d601f19601f820116820180604052508101906200109a91906200287f565b9750806001600160a01b031663af157a786040518163ffffffff1660e01b815260040160206040518083038186803b158015620010d657600080fd5b505afa158015620010eb573d6000803e3d6000fd5b505050506040513d601f19601f820116820180604052508101906200111191906200287f565b9650806001600160a01b0316636bc6f0576040518163ffffffff1660e01b815260040160206040518083038186803b1580156200114d57600080fd5b505afa15801562001162573d6000803e3d6000fd5b505050506040513d601f19601f82011682018060405250810190620011889190620027a5565b82546001600160a01b03600160201b9091048116600081815260046020526040902080546001909101549399506001600160701b031697509550620011cf91168562001207565b92505050919395979092949650565b620011eb33824262000dd7565b50565b6000818152600160205260408120620006a990620020d0565b6003546040516333e3304160e01b81526001600160a01b039182166004820152670de0b6b3a764000060248201526000918291908516906333e330419060440160206040518083038186803b1580156200126057600080fd5b505afa15801562001275573d6000803e3d6000fd5b505050506040513d601f19601f820116820180604052508101906200129b91906200280c565b9050600080846001600160a01b0316630902f1ac6040518163ffffffff1660e01b815260040160606040518083038186803b158015620012da57600080fd5b505afa158015620012ef573d6000803e3d6000fd5b505050506040513d601f19601f82011682018060405250810190620013159190620027c4565b5091509150600080600360009054906101000a90046001600160a01b03166001600160a01b0316876001600160a01b0316630dfe16816040518163ffffffff1660e01b815260040160206040518083038186803b1580156200137657600080fd5b505afa1580156200138b573d6000803e3d6000fd5b505050506040513d601f19601f82011682018060405250810190620013b19190620025d9565b6001600160a01b031614156200141857620013d76001600160701b038516600262002b01565b915084620013f06001600160701b038516600262002b01565b6200140490670de0b6b3a764000062002b01565b62001410919062002ab8565b90506200146a565b6200142e6001600160701b038416600262002b01565b915084620014476001600160701b038616600262002b01565b6200145b90670de0b6b3a764000062002b01565b62001467919062002ab8565b90505b866001600160a01b03166318160ddd6040518163ffffffff1660e01b815260040160206040518083038186803b158015620014a457600080fd5b505afa158015620014b9573d6000803e3d6000fd5b505050506040513d601f19601f82011682018060405250810190620014df91906200280c565b81831115620014ef5781620014f1565b825b6200150590670de0b6b3a764000062002b01565b62001511919062002ab8565b98975050505050505050565b60025460ff1615620015435760405162461bcd60e51b815260040162000dfd9062002a03565b600254600082815260066020908152604080832033845290915290205442916200157e9163ffffffff600160a81b9092048216911662002a6d565b63ffffffff1610620015c15760405162461bcd60e51b815260206004820152600b60248201526a454d3a204646206c6f636b60a81b604482015260640162000dfd565b60058181548110620015e357634e487b7160e01b600052603260045260246000fd5b6000918252602090912060029091020160010154604051633971e1b960e01b81523360048201526001600160a01b0390911690633971e1b990602401602060405180830381600087803b1580156200163a57600080fd5b505af11580156200164f573d6000803e3d6000fd5b505050506040513d601f19601f82011682018060405250810190620016759190620027a5565b60046000600584815481106200169b57634e487b7160e01b600052603260045260246000fd5b6000918252602080832060029290920290910154600160201b90046001600160a01b0316835282019290925260400190208054600e90620016ee908490600160701b90046001600160701b031662002b23565b92506101000a8154816001600160701b0302191690836001600160701b0316021790555050565b60005b600554811015620011eb576200172e81620011de565b806200173a8162002bb5565b91505062001718565b620009818282620020db565b60025460ff1615620017755760405162461bcd60e51b815260040162000dfd9062002a03565b6000600583815481106200179957634e487b7160e01b600052603260045260246000fd5b60009182526020909120600291820201805491546040516323b872dd60e01b81523360048201526101009091046001600160a01b03908116602483015260448201869052919350600160201b90920416906323b872dd90606401602060405180830381600087803b1580156200180e57600080fd5b505af115801562001823573d6000803e3d6000fd5b505050506040513d601f19601f820116820180604052508101906200184991906200268b565b5080546001600160a01b03600160201b9091048116600090815260046020819052604080832060010154815163a2e6204560e01b81529151941693849363a2e62045938381019391929182900301818387803b158015620018a957600080fd5b505af1158015620018be573d6000803e3d6000fd5b5050835460009250670de0b6b3a76400009150620018ee908490600160201b90046001600160a01b031662001207565b620018fa908662002b01565b62001906919062002ab8565b9050600061271062001965600588815481106200193357634e487b7160e01b600052603260045260246000fd5b6000918252602090912060029091020154865463ffffffff90911690600160201b90046001600160a01b031662000d5e565b620019739061271062002a6d565b620019859063ffffffff168462002b01565b62001991919062002ab8565b905060058681548110620019b557634e487b7160e01b600052603260045260246000fd5b6000918252602090912060029091020160010154604051636367a5b960e01b81523360048201526001600160701b03831660248201526001600160a01b0390911690636367a5b990604401602060405180830381600087803b15801562001a1b57600080fd5b505af115801562001a30573d6000803e3d6000fd5b505050506040513d601f19601f8201168201806040525081019062001a569190620027a5565b8454600160201b90046001600160a01b031660009081526004602052604090208054600e9062001a98908490600160701b90046001600160701b031662002a2d565b82546101009290920a6001600160701b0381810219909316919092169190910217905550505060009384525050600660209081526040808420338552909152909120805463ffffffff19164263ffffffff1617905550565b600060008051602062005f9783398151915262001b0e813362001e9e565b6001600160a01b0383166000908152600460205260409020546001600160701b031662001b705760405162461bcd60e51b815260206004820152600f60248201526e22a69d1022a9103737ba1039b2ba1760891b604482015260640162000dfd565b60006040518060200162001b8490620025ac565b601f1982820381018352601f9091011660408181526003546001600160a01b0316602083015263ffffffff8a8116918301919091528816606082015260800160408051601f198184030181529082905262001be3929160200162002922565b60408051601f19818403018152908290526bffffffffffffffffffffffff19606087901b1660208301526001600160e01b031960e08a811b8216603485015289901b16603883015242603c8301529150600090605c016040516020818303038152906040528051906020012090506000818351602085016000f590506005805490509450600560405180606001604052806301e133808b63ffffffff168b63ffffffff1662001c93919062002b01565b62001c9f919062002ab8565b63ffffffff90811682526001600160a01b03808b1660208085019190915286821660409485015285546001818101885560009788529682902086516002909202018054928701518416600160201b026001600160c01b0319909316919094161717825592820151930180549383166001600160a01b0319909416939093179092556003549151632f2ff15d60e01b8152911690632f2ff15d9062001d7b907f9f2df0fed2c77648de5860a4cc508cd0818c85b8b8a1ab4ceeef8d981c8956a69085906004019182526001600160a01b0316602082015260400190565b600060405180830381600087803b15801562001d9657600080fd5b505af115801562001dab573d6000803e3d6000fd5b5050505050505050949350505050565b62001dc681620011de565b620011eb816200151d565b60008051602062005f9783398151915262001ded813362001e9e565b50600280546001600160a01b0390921661010002610100600160a81b0319909216919091179055565b60005b600554811015620011eb5762001e2f816200151d565b8062001e3b8162002bb5565b91505062001e19565b6200093c828262002105565b600062000f84836001600160a01b0384166200218d565b60006001600160e01b03198216637965db0b60e01b1480620006a957506301ffc9a760e01b6001600160e01b0319831614620006a9565b62001eaa828262000f8b565b6200093c5762001ec5816001600160a01b03166014620021df565b62001ed2836020620021df565b60405160200162001ee592919062002955565b60408051601f198184030181529082905262461bcd60e51b825262000dfd91600401620029ce565b60025460ff161562001f335760405162461bcd60e51b815260040162000dfd9062002a03565b6002805460ff191660011790557f62e78cea01bee320cd4e420270b5ea74000d11b0c9f74754ebdbfc544b05a25862001f693390565b6040516001600160a01b03909116815260200160405180910390a1565b60025460ff1662001fd15760405162461bcd60e51b815260206004820152601460248201527314185d5cd8589b194e881b9bdd081c185d5cd95960621b604482015260640162000dfd565b6002805460ff191690557f5db9ee0a495bf2e6ff9c91a7834c1ba4fdd244a5e8aa4e537bd38aeae4b073aa3362001f69565b60008281526020819052604090206001015462002021813362001e9e565b62000970838362002105565b6001600160a01b03811633146200209f5760405162461bcd60e51b815260206004820152602f60248201527f416363657373436f6e74726f6c3a2063616e206f6e6c792072656e6f756e636560448201526e103937b632b9903337b91039b2b63360891b606482015260840162000dfd565b6200093c8282620023d5565b600062000f84836001600160a01b0384166200243d565b600062000f84838362002565565b6000620006a9825490565b600082815260208190526040902060010154620020f9813362001e9e565b620009708383620023d5565b62002111828262000f8b565b6200093c576000828152602081815260408083206001600160a01b03851684529091529020805460ff19166001179055620021493390565b6001600160a01b0316816001600160a01b0316837f2f8788117e7eff1d82e926ec794901d17c78024a50270940304540a733656f0d60405160405180910390a45050565b6000818152600183016020526040812054620021d657508154600181810184556000848152602080822090930184905584548482528286019093526040902091909155620006a9565b506000620006a9565b60606000620021f083600262002b01565b620021fd90600262002a52565b67ffffffffffffffff8111156200222457634e487b7160e01b600052604160045260246000fd5b6040519080825280601f01601f1916602001820160405280156200224f576020820181803683370190505b509050600360fc1b816000815181106200227957634e487b7160e01b600052603260045260246000fd5b60200101906001600160f81b031916908160001a905350600f60fb1b81600181518110620022b757634e487b7160e01b600052603260045260246000fd5b60200101906001600160f81b031916908160001a9053506000620022dd84600262002b01565b620022ea90600162002a52565b90505b600181111562002384576f181899199a1a9b1b9c1cb0b131b232b360811b85600f16601081106200232e57634e487b7160e01b600052603260045260246000fd5b1a60f81b8282815181106200235357634e487b7160e01b600052603260045260246000fd5b60200101906001600160f81b031916908160001a90535060049490941c936200237c8162002b9b565b9050620022ed565b50831562000f845760405162461bcd60e51b815260206004820181905260248201527f537472696e67733a20686578206c656e67746820696e73756666696369656e74604482015260640162000dfd565b620023e1828262000f8b565b156200093c576000828152602081815260408083206001600160a01b0385168085529252808320805460ff1916905551339285917ff6391f5c32d9c69d2a47ea670b442974b53935d1edc7fd64eb21e047a839171b9190a45050565b600081815260018301602052604081205480156200255a5760006200246460018362002b4e565b85549091506000906200247a9060019062002b4e565b9050818114620024fe576000866000018281548110620024aa57634e487b7160e01b600052603260045260246000fd5b9060005260206000200154905080876000018481548110620024dc57634e487b7160e01b600052603260045260246000fd5b6000918252602080832090910192909255918252600188019052604090208390555b85548690806200251e57634e487b7160e01b600052603160045260246000fd5b600190038181906000526020600020016000905590558560010160008681526020019081526020016000206000905560019350505050620006a9565b6000915050620006a9565b60008260000182815481106200258b57634e487b7160e01b600052603260045260246000fd5b9060005260206000200154905092915050565b6115398062002c4e83390190565b611e10806200418783390190565b600060208284031215620025cc578081fd5b813562000f848162002bff565b600060208284031215620025eb578081fd5b815162000f848162002bff565b600080604083850312156200260b578081fd5b8235620026188162002bff565b946020939093013593505050565b6000806000606084860312156200263b578081fd5b8335620026488162002bff565b9250602084013591506040840135620026618162002c3a565b809150509250925092565b6000602082840312156200267e578081fd5b813562000f848162002c15565b6000602082840312156200269d578081fd5b815162000f848162002c15565b600060208284031215620026bc578081fd5b5035919050565b60008060408385031215620026d6578182fd5b823591506020830135620026ea8162002bff565b809150509250929050565b6000806040838503121562002708578182fd5b50508035926020909101359150565b60006020828403121562002729578081fd5b81356001600160e01b03198116811462000f84578182fd5b6000806040838503121562002754578182fd5b8235620027618162002bff565b91506020830135620026ea8162002c24565b6000806040838503121562002786578182fd5b8235620027938162002bff565b91506020830135620026ea8162002bff565b600060208284031215620027b7578081fd5b815162000f848162002c24565b600080600060608486031215620027d9578081fd5b8351620027e68162002c24565b6020850151909350620027f98162002c24565b6040850151909250620026618162002c3a565b6000602082840312156200281e578081fd5b5051919050565b6000806000606084860312156200283a578081fd5b8335925060208401356200284e8162002c3a565b91506040840135620026618162002c3a565b60006020828403121562002872578081fd5b813562000f848162002c3a565b60006020828403121562002891578081fd5b815162000f848162002c3a565b60008060408385031215620028b1578182fd5b8235620027938162002c3a565b60008060008060808587031215620028d4578182fd5b8435620028e18162002c3a565b93506020850135620028f38162002c3a565b92506040850135620029058162002c3a565b91506060850135620029178162002bff565b939692955090935050565b600083516200293681846020880162002b68565b8351908301906200294c81836020880162002b68565b01949350505050565b7f416363657373436f6e74726f6c3a206163636f756e74200000000000000000008152600083516200298f81601785016020880162002b68565b7001034b99036b4b9b9b4b733903937b6329607d1b6017918401918201528351620029c281602884016020880162002b68565b01602801949350505050565b6020815260008251806020840152620029ef81604085016020870162002b68565b601f01601f19169190910160400192915050565b60208082526010908201526f14185d5cd8589b194e881c185d5cd95960821b604082015260600190565b60006001600160701b038083168185168083038211156200294c576200294c62002bd3565b6000821982111562002a685762002a6862002bd3565b500190565b600063ffffffff8083168185168083038211156200294c576200294c62002bd3565b60006001600160701b038084168062002aac5762002aac62002be9565b92169190910492915050565b60008262002aca5762002aca62002be9565b500490565b60006001600160701b038083168185168183048111821515161562002af85762002af862002bd3565b02949350505050565b600081600019048311821515161562002b1e5762002b1e62002bd3565b500290565b60006001600160701b038381169083168181101562002b465762002b4662002bd3565b039392505050565b60008282101562002b635762002b6362002bd3565b500390565b60005b8381101562002b8557818101518382015260200162002b6b565b8381111562002b95576000848401525b50505050565b60008162002bad5762002bad62002bd3565b506000190190565b600060001982141562002bcc5762002bcc62002bd3565b5060010190565b634e487b7160e01b600052601160045260246000fd5b634e487b7160e01b600052601260045260246000fd5b6001600160a01b0381168114620011eb57600080fd5b8015158114620011eb57600080fd5b6001600160701b0381168114620011eb57600080fd5b63ffffffff81168114620011eb57600080fdfe60e0604052610e106001553480156200001757600080fd5b5060405162001539380380620015398339810160408190526200003a91620003ff565b620000453362000392565b6000819050806001600160a01b03166080816001600160a01b031660601b81525050806001600160a01b0316630dfe16816040518163ffffffff1660e01b815260040160206040518083038186803b158015620000a157600080fd5b505afa158015620000b6573d6000803e3d6000fd5b505050506040513d601f19601f82011682018060405250810190620000dc9190620003ff565b6001600160a01b031660a0816001600160a01b031660601b81525050806001600160a01b031663d21220a76040518163ffffffff1660e01b815260040160206040518083038186803b1580156200013257600080fd5b505afa15801562000147573d6000803e3d6000fd5b505050506040513d601f19601f820116820180604052508101906200016d9190620003ff565b6001600160a01b031660c0816001600160a01b031660601b81525050806001600160a01b0316635909c0d56040518163ffffffff1660e01b815260040160206040518083038186803b158015620001c357600080fd5b505afa158015620001d8573d6000803e3d6000fd5b505050506040513d601f19601f82011682018060405250810190620001fe919062000483565b600281905550806001600160a01b0316635a3d54936040518163ffffffff1660e01b815260040160206040518083038186803b1580156200023e57600080fd5b505afa15801562000253573d6000803e3d6000fd5b505050506040513d601f19601f8201168201806040525081019062000279919062000483565b600381905550600080826001600160a01b0316630902f1ac6040518163ffffffff1660e01b815260040160606040518083038186803b158015620002bc57600080fd5b505afa158015620002d1573d6000803e3d6000fd5b505050506040513d601f19601f82011682018060405250810190620002f791906200042f565b6004805463ffffffff191663ffffffff9290921691909117905590925090506001600160701b038216158015906200033757506001600160701b03811615155b620003885760405162461bcd60e51b815260206004820152601760248201527f506169724f7261636c653a204e4f5f5245534552564553000000000000000000604482015260640160405180910390fd5b505050506200049c565b600080546001600160a01b038381166001600160a01b0319831681178455604051919092169283917f8be0079c531659141344cd1fd0a4f28419497f9722a3daafe3b4186f6b6457e09190a35050565b80516001600160701b0381168114620003fa57600080fd5b919050565b60006020828403121562000411578081fd5b81516001600160a01b038116811462000428578182fd5b9392505050565b60008060006060848603121562000444578182fd5b6200044f84620003e2565b92506200045f60208501620003e2565b9150604084015163ffffffff8116811462000478578182fd5b809150509250925092565b60006020828403121562000495578081fd5b5051919050565b60805160601c60a05160601c60c05160601c611033620005066000396000818161024a01528181610346015261069301526000818161010a015281816102ce01526106350152600081816101f50152818161043a0152818161059f01526109bb01526110336000f3fe608060405234801561001057600080fd5b50600436106101005760003560e01c8063a2e6204511610097578063c5700a0211610066578063c5700a0214610220578063d21220a714610245578063e230f4741461026c578063f2fde38b1461027f57600080fd5b8063a2e62045146101d5578063a6bb4539146101dd578063a8aa1b31146101f0578063b4d1d7951461021757600080fd5b80635a3d5493116100d35780635a3d5493146101885780635e6aaf2c14610191578063715018a6146101bc5780638da5cb5b146101c457600080fd5b80630dfe1681146101055780630f3a9f651461014957806333e330411461015e5780635909c0d51461017f575b600080fd5b61012c7f000000000000000000000000000000000000000000000000000000000000000081565b6040516001600160a01b0390911681526020015b60405180910390f35b61015c610157366004610f0d565b610292565b005b61017161016c366004610e96565b6102ca565b604051908152602001610140565b61017160025481565b61017160035481565b6006546101a4906001600160e01b031681565b6040516001600160e01b039091168152602001610140565b61015c6103fa565b6000546001600160a01b031661012c565b61015c610430565b6005546101a4906001600160e01b031681565b61012c7f000000000000000000000000000000000000000000000000000000000000000081565b61017160015481565b6004546102309063ffffffff1681565b60405163ffffffff9091168152602001610140565b61012c7f000000000000000000000000000000000000000000000000000000000000000081565b61017161027a366004610e96565b610598565b61015c61028d366004610e7c565b610736565b6000546001600160a01b031633146102c55760405162461bcd60e51b81526004016102bc90610f3d565b60405180910390fd5b600155565b60007f00000000000000000000000000000000000000000000000000000000000000006001600160a01b0316836001600160a01b031614156103445760408051602081019091526005546001600160e01b031681526103349061032d90846107d1565b5160701c90565b6001600160901b031690506103f4565b7f00000000000000000000000000000000000000000000000000000000000000006001600160a01b0316836001600160a01b0316146103c15760405162461bcd60e51b81526020600482015260196024820152782830b4b927b930b1b6329d1024a72b20a624a22faa27a5a2a760391b60448201526064016102bc565b60408051602081019091526006546001600160e01b031681526103e89061032d90846107d1565b6001600160901b031690505b92915050565b6000546001600160a01b031633146104245760405162461bcd60e51b81526004016102bc90610f3d565b61042e600061086f565b565b600080600061045e7f00000000000000000000000000000000000000000000000000000000000000006108bf565b600454600154939650919450925063ffffffff9081168303919082161080156104b5575060408051602081019091526005546001600160e01b03811690915260701c6001600160701b03166001600160701b031615155b156104c05750505050565b60405180602001604052808263ffffffff166002548703816104f257634e487b7160e01b600052601260045260246000fd5b046001600160e01b039081169091529051600580546001600160e01b031916919092161790556040805160208101909152600354819063ffffffff84169086038161054d57634e487b7160e01b600052601260045260246000fd5b046001600160e01b039081169091529051600680546001600160e01b03191691909216179055506002929092556003556004805463ffffffff191663ffffffff909216919091179055565b60008060007f00000000000000000000000000000000000000000000000000000000000000006001600160a01b0316630902f1ac6040518163ffffffff1660e01b815260040160606040518083038186803b1580156105f657600080fd5b505afa15801561060a573d6000803e3d6000fd5b505050506040513d601f19601f8201168201806040525081019061062e9190610ebf565b50915091507f00000000000000000000000000000000000000000000000000000000000000006001600160a01b0316856001600160a01b031614156106915761068a84836001600160701b0316836001600160701b0316610ad4565b925061072e565b7f00000000000000000000000000000000000000000000000000000000000000006001600160a01b0316856001600160a01b03161461070e5760405162461bcd60e51b81526020600482015260196024820152782830b4b927b930b1b6329d1024a72b20a624a22faa27a5a2a760391b60448201526064016102bc565b61072b84826001600160701b0316846001600160701b0316610ad4565b92505b505092915050565b6000546001600160a01b031633146107605760405162461bcd60e51b81526004016102bc90610f3d565b6001600160a01b0381166107c55760405162461bcd60e51b815260206004820152602660248201527f4f776e61626c653a206e6577206f776e657220697320746865207a65726f206160448201526564647265737360d01b60648201526084016102bc565b6107ce8161086f565b50565b604080516020810190915260008152600082158061080e575083516001600160e01b0316836108008183610f9e565b925061080c9083610f8a565b145b61085a5760405162461bcd60e51b815260206004820152601960248201527f4669786564506f696e743a3a6d756c3a206f766572666c6f770000000000000060448201526064016102bc565b60408051602081019091529081529392505050565b600080546001600160a01b038381166001600160a01b0319831681178455604051919092169283917f8be0079c531659141344cd1fd0a4f28419497f9722a3daafe3b4186f6b6457e09190a35050565b60008060006108cc610be8565b9050836001600160a01b0316635909c0d56040518163ffffffff1660e01b815260040160206040518083038186803b15801561090757600080fd5b505afa15801561091b573d6000803e3d6000fd5b505050506040513d601f19601f8201168201806040525081019061093f9190610f25565b9250836001600160a01b0316635a3d54936040518163ffffffff1660e01b815260040160206040518083038186803b15801561097a57600080fd5b505afa15801561098e573d6000803e3d6000fd5b505050506040513d601f19601f820116820180604052508101906109b29190610f25565b915060008060007f00000000000000000000000000000000000000000000000000000000000000006001600160a01b0316630902f1ac6040518163ffffffff1660e01b815260040160606040518083038186803b158015610a1257600080fd5b505afa158015610a26573d6000803e3d6000fd5b505050506040513d601f19601f82011682018060405250810190610a4a9190610ebf565b9250925092508363ffffffff168163ffffffff1614610aca5780840363ffffffff8116610a836001600160701b03808616908716610bfe565b600001516001600160e01b031602870196508063ffffffff16610ab8856001600160701b0316856001600160701b0316610bfe565b516001600160e01b0316029590950194505b5050509193909250565b6000808411610b335760405162461bcd60e51b815260206004820152602560248201527f416d6d4c6962726172793a20494e53554646494349454e545f494e5055545f416044820152641353d5539560da1b60648201526084016102bc565b600083118015610b435750600082115b610b9a5760405162461bcd60e51b815260206004820152602260248201527f416d6d4c6962726172793a20494e53554646494349454e545f4c495155494449604482015261545960f01b60648201526084016102bc565b6000610ba8856103e6610f9e565b90506000610bb68483610f9e565b9050600082610bc7876103e8610f9e565b610bd19190610f72565b9050610bdd8183610f8a565b979650505050505050565b6000610bf964010000000042610fbd565b905090565b60408051602081019091526000815260008211610c6c5760405162461bcd60e51b815260206004820152602660248201527f4669786564506f696e743a3a6672616374696f6e3a206469766973696f6e206260448201526579207a65726f60d01b60648201526084016102bc565b82610c8657506040805160208101909152600081526103f4565b6001600160901b038311610d1d576000610ca483607086901b610f8a565b90506001600160e01b03811115610cfd5760405162461bcd60e51b815260206004820152601e60248201527f4669786564506f696e743a3a6672616374696f6e3a206f766572666c6f77000060448201526064016102bc565b6040518060200160405280826001600160e01b03168152509150506103f4565b6000610ca484600160701b856000806000610d388686610e01565b9150915060008480610d5a57634e487b7160e01b600052601260045260246000fd5b868809905082811115610d6e576001820391505b918290039181610da057848381610d9557634e487b7160e01b600052601260045260246000fd5b049350505050610dfa565b848210610def5760405162461bcd60e51b815260206004820152601a60248201527f46756c6c4d6174683a2046554c4c4449565f4f564552464c4f5700000000000060448201526064016102bc565b610bdd838387610e2e565b9392505050565b6000808060001984860990508385029250828103915082811015610e26576001820391505b509250929050565b6000808083634e487b7160e01b600052601260045260246000fd5b80356001600160a01b0381168114610e6057600080fd5b919050565b80516001600160701b0381168114610e6057600080fd5b600060208284031215610e8d578081fd5b610dfa82610e49565b60008060408385031215610ea8578081fd5b610eb183610e49565b946020939093013593505050565b600080600060608486031215610ed3578081fd5b610edc84610e65565b9250610eea60208501610e65565b9150604084015163ffffffff81168114610f02578182fd5b809150509250925092565b600060208284031215610f1e578081fd5b5035919050565b600060208284031215610f36578081fd5b5051919050565b6020808252818101527f4f776e61626c653a2063616c6c6572206973206e6f7420746865206f776e6572604082015260600190565b60008219821115610f8557610f85610fd1565b500190565b600082610f9957610f99610fe7565b500490565b6000816000190483118215151615610fb857610fb8610fd1565b500290565b600082610fcc57610fcc610fe7565b500690565b634e487b7160e01b600052601160045260246000fd5b634e487b7160e01b600052601260045260246000fdfea2646970667358221220e99a767b8d76905f61cbb97fa886cb3e648d8ff6bb8f18cdef1a17345d7eabce64736f6c6343000804003360806040523480156200001157600080fd5b5060405162001e1038038062001e10833981016040819052620000349162000250565b62000041600033620000d1565b6200006d7f573321b8a13c75b2702bc4b0ad9afaae98bf6985285411964a564e68bf6da1c933620000d1565b600280546001600160a01b0319166001600160a01b03949094169390931790925560048054600160701b600160b01b031916600160901b63ffffffff9384160263ffffffff60701b191617600160701b9290931691909102919091179055620002a5565b620000e882826200011460201b620010081760201c565b60008281526001602090815260409091206200010f9183906200101662000124821b17901c565b505050565b62000120828262000144565b5050565b60006200013b836001600160a01b038416620001e4565b90505b92915050565b6000828152602081815260408083206001600160a01b038516845290915290205460ff1662000120576000828152602081815260408083206001600160a01b03851684529091529020805460ff19166001179055620001a03390565b6001600160a01b0316816001600160a01b0316837f2f8788117e7eff1d82e926ec794901d17c78024a50270940304540a733656f0d60405160405180910390a45050565b60008181526001830160205260408120546200022d575081546001818101845560008481526020808220909301849055845484825282860190935260409020919091556200013e565b5060006200013e565b805163ffffffff811681146200024b57600080fd5b919050565b60008060006060848603121562000265578283fd5b83516001600160a01b03811681146200027c578384fd5b92506200028c6020850162000236565b91506200029c6040850162000236565b90509250925092565b611b5b80620002b56000396000f3fe608060405234801561001057600080fd5b506004361061014d5760003560e01c80636367a5b9116100c35780639d5a239f1161007c5780639d5a239f1461035d578063a217fddf14610370578063af157a7814610378578063ca15c8731461038f578063d547741f146103a2578063dd3a153b146103b557600080fd5b80636367a5b9146102b35780636bc6f057146102c657806370a08231146102d95780637563283c146102ec5780639010d07c1461033757806391d148541461034a57600080fd5b80632f2ff15d116101155780632f2ff15d146101fe57806336568abe146102135780633971e1b9146102265780633f5d7a06146102395780635c5df5781461026e5780635ce34a991461028857600080fd5b806301ffc9a7146101525780630cbcb3ac1461017a578063248a9ca3146101a5578063250b4a1f146101d65780632e285051146101e9575b600080fd5b610165610160366004611862565b6103cc565b60405190151581526020015b60405180910390f35b61018d6101883660046117d5565b6103f7565b6040516001600160701b039091168152602001610171565b6101c86101b3366004611807565b60009081526020819052604090206001015490565b604051908152602001610171565b60035461018d906001600160701b031681565b6101c8600080516020611b0683398151915281565b61021161020c36600461181f565b61096b565b005b61021161022136600461181f565b610992565b61018d61023436600461177a565b6109b4565b61018d61024736600461177a565b6001600160a01b03166000908152600560205260409020600101546001600160701b031690565b60035461018d90600160701b90046001600160701b031681565b60025461029b906001600160a01b031681565b6040516001600160a01b039091168152602001610171565b61018d6102c1366004611794565b610c8f565b60045461018d906001600160701b031681565b6101c86102e736600461177a565b610eab565b6103226102fa36600461177a565b6001600160a01b0316600090815260056020526040902054600160e01b900463ffffffff1690565b60405163ffffffff9091168152602001610171565b61029b610345366004611841565b610eef565b61016561035836600461181f565b610f0e565b61021161036b36600461188a565b610f37565b6101c8600081565b60045461032290600160901b900463ffffffff1681565b6101c861039d366004611807565b610fe7565b6102116103b036600461181f565b610ffe565b60045461032290600160701b900463ffffffff1681565b60006001600160e01b03198216635a05180f60e01b14806103f157506103f18261102b565b92915050565b6000600080516020611b068339815191526104128133611060565b6001600160a01b03841660009081526005602052604090204263ffffffff851611156104ab5760405162461bcd60e51b815260206004820152603b60248201527f4368726f6e6f56657374696e673a2043616e6e6f74207570646174652061636360448201527f6f756e7420706173742063757272656e742074696d657374616d70000000000060648201526084015b60405180910390fd5b8054600160e01b900463ffffffff1660005b8563ffffffff168263ffffffff16101561075c5760008080526003840160209081526040808320600184528252808320548352600486019091529020805463ffffffff888116600160701b9092041610801561052657508054600160701b900463ffffffff1615155b1561071e57600184015481546001600160701b0390911690610556908590600160701b900463ffffffff16611a75565b63ffffffff1661056691906119e8565b610570908361194c565b81546001860154600160701b80830463ffffffff1696509294506001600160701b03918216929004161561064e5760018501546001600160701b03600160701b909104811690821611610610578085600101600e8282829054906101000a90046001600160701b03166105e39190611a36565b92506101000a8154816001600160701b0302191690836001600160701b031602179055506000905061064e565b600185015461062f90600160701b90046001600160701b031682611a36565b6001860180546dffffffffffffffffffffffffffff60701b1916905590505b60018501805482919060009061066e9084906001600160701b0316611a36565b92506101000a8154816001600160701b0302191690836001600160701b0316021790555080600460008282829054906101000a90046001600160701b03166106b69190611a36565b92506101000a8154816001600160701b0302191690836001600160701b0316021790555080876106e6919061194c565b96508460040160006106fa876002016110c4565b8152602081019190915260400160002080546001600160901b031916905550610756565b60018401546001600160701b03166107368489611a75565b63ffffffff1661074691906119e8565b610750908361194c565b91508692505b506104bd565b60018301546001600160701b03161580156107aa575082546000908290610795906001600160701b03600160701b820481169116611a36565b61079f9190611a36565b6001600160701b0316115b156107d05782546107cd906001600160701b03600160701b820481169116611a36565b90505b825481908490600e906107f4908490600160701b90046001600160701b031661194c565b82546101009290920a6001600160701b0381810219909316918316021790915584546001600160e01b0316600160e01b63ffffffff861602178555600380548493509091600e9161084e918591600160701b90041661194c565b82546101009290920a6001600160701b038181021990931691831602179091556002546040516340c10f1960e01b81526001600160a01b038b811660048301529285166024820152911691506340c10f1990604401600060405180830381600087803b1580156108bd57600080fd5b505af11580156108d1573d6000803e3d6000fd5b505084546001600160701b03808216600160701b909204161115915061096190505760405162461bcd60e51b815260206004820152603860248201527f4368726f6e6f56657374696e673a2043616e206e6576657220636c61696d206d60448201527f6f72652072657761726473207468616e206772616e746564000000000000000060648201526084016104a2565b5050505092915050565b610975828261114e565b600082815260016020526040902061098d9082611016565b505050565b61099c8282611174565b600082815260016020526040902061098d90826111ee565b6000600080516020611b068339815191526109cf8133611060565b6001600160a01b03831660009081526005602052604081208054909190610a08906001600160701b03600160701b820481169116611a36565b6004546001600160701b0391909116915060009061271090610a3790600160901b900463ffffffff1684611a17565b610a4191906119d4565b6001840180546001600160701b0380821698509293508792600e91610a6f918591600160701b90041661194c565b92506101000a8154816001600160701b0302191690836001600160701b0316021790555084600460008282829054906101000a90046001600160701b0316610ab79190611a36565b82546001600160701b039182166101009390930a9283029190920219909116179055506001830180546dffffffffffffffffffffffffffff191690556002546040516340c10f1960e01b81526001600160a01b03888116600483015260248201849052909116906340c10f1990604401600060405180830381600087803b158015610b4157600080fd5b505af1158015610b55573d6000803e3d6000fd5b5050505060008183610b679190611a36565b845490915081908590600090610b879084906001600160701b0316611a36565b92506101000a8154816001600160701b0302191690836001600160701b031602179055508184600001600e8282829054906101000a90046001600160701b0316610bd1919061194c565b92506101000a8154816001600160701b0302191690836001600160701b0316021790555080600360008282829054906101000a90046001600160701b0316610c199190611a36565b92506101000a8154816001600160701b0302191690836001600160701b03160217905550816003600e8282829054906101000a90046001600160701b0316610c61919061194c565b92506101000a8154816001600160701b0302191690836001600160701b031602179055505050505050919050565b6000600080516020611b06833981519152610caa8133611060565b610cb484426103f7565b506001600160a01b03841660009081526005602052604081206003805491928692610ce99084906001600160701b031661194c565b92506101000a8154816001600160701b0302191690836001600160701b03160217905550838160000160008282829054906101000a90046001600160701b0316610d33919061194c565b92506101000a8154816001600160701b0302191690836001600160701b031602179055506004600e9054906101000a900463ffffffff1663ffffffff1684610d7b91906119ae565b6001820180549194508491600090610d9d9084906001600160701b031661194c565b92506101000a8154816001600160701b0302191690836001600160701b0316021790555082600460008282829054906101000a90046001600160701b0316610de5919061194c565b92506101000a8154816001600160701b0302191690836001600160701b031602179055506040518060400160405280846001600160701b031681526020016004600e9054906101000a900463ffffffff1642610e41919061198f565b63ffffffff169052600482016000610e5b60028501611203565b815260208082019290925260400160002082518154939092015163ffffffff16600160701b026001600160901b03199093166001600160701b039092169190911791909117905550909392505050565b6001600160a01b038116600090815260056020526040812054610ee0906001600160701b03600160701b820481169116611a36565b6001600160701b031692915050565b6000828152600160205260408120610f07908361126a565b9392505050565b6000918252602082815260408084206001600160a01b0393909316845291905290205460ff1690565b600080516020611b06833981519152610f508133611060565b6127108263ffffffff161115610fc05760405162461bcd60e51b815260206004820152602f60248201527f43616e6e6f7420736574206561726c792065786974206869676865722074686160448201526e6e20746f74616c2076657374696e6760881b60648201526084016104a2565b506004805463ffffffff909216600160901b0263ffffffff60901b19909216919091179055565b60008181526001602052604081206103f190611276565b61099c8282611280565b61101282826112a6565b5050565b6000610f07836001600160a01b03841661132a565b60006001600160e01b03198216637965db0b60e01b14806103f157506301ffc9a760e01b6001600160e01b03198316146103f1565b61106a8282610f0e565b61101257611082816001600160a01b03166014611379565b61108d836020611379565b60405160200161109e9291906118a4565b60408051601f198184030181529082905262461bcd60e51b82526104a291600401611919565b6000808052600182810160208181526040808520848652825280852054808652928252808520858052909152808420548385529084205491926111099286929161155b565b60008181526001848101602090815260408084208480529091528083208390558183528220829055845490918591611142908490611a5e565b90915550909392505050565b60008281526020819052604090206001015461116a8133611060565b61098d83836112a6565b6001600160a01b03811633146111e45760405162461bcd60e51b815260206004820152602f60248201527f416363657373436f6e74726f6c3a2063616e206f6e6c792072656e6f756e636560448201526e103937b632b9903337b91039b2b63360891b60648201526084016104a2565b6110128282611590565b6000610f07836001600160a01b0384166115f5565b600080805260018083016020908152604080842090915282205490829061122b908390611977565b905061123b84600083600061155b565b611248848284600061155b565b600184600001600082825461125d9190611977565b9091555090949350505050565b6000610f078383611712565b60006103f1825490565b60008281526020819052604090206001015461129c8133611060565b61098d8383611590565b6112b08282610f0e565b611012576000828152602081815260408083206001600160a01b03851684529091529020805460ff191660011790556112e63390565b6001600160a01b0316816001600160a01b0316837f2f8788117e7eff1d82e926ec794901d17c78024a50270940304540a733656f0d60405160405180910390a45050565b6000818152600183016020526040812054611371575081546001818101845560008481526020808220909301849055845484825282860190935260409020919091556103f1565b5060006103f1565b60606000611388836002611a17565b611393906002611977565b67ffffffffffffffff8111156113b957634e487b7160e01b600052604160045260246000fd5b6040519080825280601f01601f1916602001820160405280156113e3576020820181803683370190505b509050600360fc1b8160008151811061140c57634e487b7160e01b600052603260045260246000fd5b60200101906001600160f81b031916908160001a905350600f60fb1b8160018151811061144957634e487b7160e01b600052603260045260246000fd5b60200101906001600160f81b031916908160001a905350600061146d846002611a17565b611478906001611977565b90505b600181111561150c576f181899199a1a9b1b9c1cb0b131b232b360811b85600f16601081106114ba57634e487b7160e01b600052603260045260246000fd5b1a60f81b8282815181106114de57634e487b7160e01b600052603260045260246000fd5b60200101906001600160f81b031916908160001a90535060049490941c9361150581611ac2565b905061147b565b508315610f075760405162461bcd60e51b815260206004820181905260248201527f537472696e67733a20686578206c656e67746820696e73756666696369656e7460448201526064016104a2565b600082815260019094016020818152604080872093158088529382528087208690559486529081528385209115855252912055565b61159a8282610f0e565b15611012576000828152602081815260408083206001600160a01b0385168085529252808320805460ff1916905551339285917ff6391f5c32d9c69d2a47ea670b442974b53935d1edc7fd64eb21e047a839171b9190a45050565b60008181526001830160205260408120548015611708576000611619600183611a5e565b855490915060009061162d90600190611a5e565b90508181146116ae57600086600001828154811061165b57634e487b7160e01b600052603260045260246000fd5b906000526020600020015490508087600001848154811061168c57634e487b7160e01b600052603260045260246000fd5b6000918252602080832090910192909255918252600188019052604090208390555b85548690806116cd57634e487b7160e01b600052603160045260246000fd5b6001900381819060005260206000200160009055905585600101600086815260200190815260200160002060009055600193505050506103f1565b60009150506103f1565b600082600001828154811061173757634e487b7160e01b600052603260045260246000fd5b9060005260206000200154905092915050565b80356001600160a01b038116811461176157600080fd5b919050565b803563ffffffff8116811461176157600080fd5b60006020828403121561178b578081fd5b610f078261174a565b600080604083850312156117a6578081fd5b6117af8361174a565b915060208301356001600160701b03811681146117ca578182fd5b809150509250929050565b600080604083850312156117e7578182fd5b6117f08361174a565b91506117fe60208401611766565b90509250929050565b600060208284031215611818578081fd5b5035919050565b60008060408385031215611831578182fd5b823591506117fe6020840161174a565b60008060408385031215611853578182fd5b50508035926020909101359150565b600060208284031215611873578081fd5b81356001600160e01b031981168114610f07578182fd5b60006020828403121561189b578081fd5b610f0782611766565b7f416363657373436f6e74726f6c3a206163636f756e74200000000000000000008152600083516118dc816017850160208801611a92565b7001034b99036b4b9b9b4b733903937b6329607d1b601791840191820152835161190d816028840160208801611a92565b01602801949350505050565b6020815260008251806020840152611938816040850160208701611a92565b601f01601f19169190910160400192915050565b60006001600160701b0380831681851680830382111561196e5761196e611ad9565b01949350505050565b6000821982111561198a5761198a611ad9565b500190565b600063ffffffff80831681851680830382111561196e5761196e611ad9565b60006001600160701b03808416806119c8576119c8611aef565b92169190910492915050565b6000826119e3576119e3611aef565b500490565b60006001600160701b0380831681851681830481118215151615611a0e57611a0e611ad9565b02949350505050565b6000816000190483118215151615611a3157611a31611ad9565b500290565b60006001600160701b0383811690831681811015611a5657611a56611ad9565b039392505050565b600082821015611a7057611a70611ad9565b500390565b600063ffffffff83811690831681811015611a5657611a56611ad9565b60005b83811015611aad578181015183820152602001611a95565b83811115611abc576000848401525b50505050565b600081611ad157611ad1611ad9565b506000190190565b634e487b7160e01b600052601160045260246000fd5b634e487b7160e01b600052601260045260246000fdfe573321b8a13c75b2702bc4b0ad9afaae98bf6985285411964a564e68bf6da1c9a26469706673582212202d0cf189e4ae9474f3404d7316832fb46a2600fa8edb15ecbdedb12764b0a56464736f6c63430008040033e9ae2b5e9447ebee770b7eae0a979f6bf5e360f511ebe0e2571485ed00534f76a2646970667358221220e2bd558df55d8fa360570dbc78cbf370fe388f91fefbfff1e4824f4812ade08364736f6c63430008040033",
  "linkReferences": {},
  "deployedLinkReferences": {}
}